:020000040800F2
:10400000FFFF01209D550108F5B0000801B100082F
:1040100099B20008E1B2000829B3000800000000CE
:10402000000000000000000000000000898200087D
:1040300071B30008000000007D840008E9B00008AA
:10404000E1550108E1550108E1550108E155010874
:10405000E1550108E1550108CDAE0008DDAE0008CC
:10406000EDAE0008FDAE00080DAF000809E701083D
:10407000E155010839E70108E1550108E15501085A
:104080007DB30008E1550108E1550108E15501083B
:10409000E1550108E1550108E15501081DAF00088F
:1040A000E1550108E1550108E1550108E155010814
:1040B000E1550108E1550108E1550108F9E601085B
:1040C000E9E60108E1550108E1550108E15501085B
:1040D000E1550108E1550108E155010839F60108EB
:1040E00099AF0008E1550108E1550108E1550108C3
:1040F000E1550108A5F80108E1550108E15501085D
:10410000E1550108E1550108E1550108E1550108B3
:10411000E1550108E1550108E15501080D35020896
:10412000B9140308E1550108E1550108E1550108FA
:10413000E1550108E1550108E1550108E155010883
:10414000E1550108E1550108E155010859690108E7
:1041500045140308E155010899F401088DF401089C
:1041600029E7010819E70108E1550108E1550108AF
:10417000E1550108E1550108E1550108E155010843
:08418000E1550108E1550108B9
:1041880081F0004102E000BF83F0004330B54FEA00
:1041980041044FEA430594EA050F08BF90EA020F6D
:1041A8001FBF54EA000C55EA020C7FEA645C7FEA00
:1041B800655C00F0E2804FEA5454D4EB5555B8BF23
:1041C8006D420CDD2C4480EA020281EA030382EA94
:1041D800000083EA010180EA020281EA0303362D26
:1041E80088BF30BD11F0004F4FEA01314FF4801CF9
:1041F8004CEA113102D0404261EB410113F0004F0B
:104208004FEA03334CEA133302D0524263EB4303C1
:1042180094EA050F00F0A780A4F10104D5F1200E5F
:104228000DDB02FA0EFC22FA05F2801841F10001BA
:1042380003FA0EF2801843FA05F359410EE0A5F18E
:1042480020050EF1200E012A03FA0EFC28BF4CF0BF
:10425800020C43FA05F3C01851EBE37101F0004575
:1042680007D54FF0000EDCF1000C7EEB00006EEB82
:104278000101B1F5801F1BD3B1F5001F0CD349080C
:104288005FEA30004FEA3C0C04F101044FEA445263
:1042980012F5800F80F09A80BCF1004F08BF5FEAEA
:1042A800500C50F1000041EB045141EA050130BDCA
:1042B8005FEA4C0C404141EB010111F4801FA4F16D
:1042C8000104E9D191F0000F04BF01460020B1FAC2
:1042D80081F308BF2033A3F10B03B3F120020CDAFA
:1042E8000C3208DD02F1140CC2F10C0201FA0CF0D8
:1042F80021FA02F10CE002F11402D8BFC2F1200C3D
:1043080001FA02F120FA0CFCDCBF41EA0C019040F2
:10431800E41AA2BF01EB0451294330BD6FEA04043B
:104328001F3C1CDA0C340EDC04F11404C4F1200226
:1043380020FA04F001FA02F340EA030021FA04F338
:1043480045EA030130BDC4F10C04C4F1200220FA8F
:1043580002F001FA04F340EA0300294630BD21FACD
:1043680004F0294630BD94F0000F83F4801306BF93
:1043780081F480110134013D4EE77FEA645C18BF87
:104388007FEA655C29D094EA050F08BF90EA020F1E
:1043980005D054EA000C04BF1946104630BD91EA16
:1043A800030F1EBF0021002030BD5FEA545C05D119
:1043B8004000494128BF41F0004130BD14F5800458
:1043C8003CBF01F5801130BD01F0004545F0FE41CC
:1043D80041F470014FF0000030BD7FEA645C1ABF01
:1043E800194610467FEA655C1CBF0B46024650EA38
:1043F800013406BF52EA033591EA030F41F4002164
:1044080030BD00BF90F0000F04BF0021704730B5E9
:104418004FF4806404F132044FF000054FF00001BE
:1044280050E700BF90F0000F04BF0021704730B57F
:104438004FF4806404F1320410F0004548BF404254
:104448004FF000013EE700BF42004FEAE2014FEAA9
:1044580031014FEA02701FBF12F07F4393F07F4F84
:1044680081F06051704792F0000F14BF93F07F4FB6
:10447800704730B54FF4607401F0004521F00041F9
:1044880020E700BF50EA010208BF704730B54FF07F
:1044980000050AE050EA010208BF704730B511F084
:1044A800004502D5404261EB41014FF4806404F1BC
:1044B80032045FEA915C3FF4DCAE4FF003025FEA3E
:1044C800DC0C18BF03325FEADC0C18BF033202EBC6
:1044D800DC02C2F1200300FA03FC20FA02F001FA20
:1044E80003FE40EA0E0021FA02F11444C1E600BFBF
:1044F80070B54FF0FF0C4CF4E06C1CEA11541DBF72
:104508001CEA135594EA0C0F95EA0C0F00F0DEF83C
:104518002C4481EA030621EA4C5123EA4C5350EA21
:10452800013518BF52EA033541F4801143F4801372
:1045380038D0A0FB02CE4FF00005E1FB02E506F003
:104548000042E0FB03E54FF00006E1FB03569CF058
:10455800000F18BF4EF0010EA4F1FF04B6F5007F5E
:1045680064F5407404D25FEA4E0E6D4146EB0606D0
:1045780042EAC62141EA55514FEAC52040EA5E5059
:104588004FEACE2EB4F1FD0C88BFBCF5E06F1ED803
:10459800BEF1004F08BF5FEA500E50F1000041EB3A
:1045A800045170BD06F0004646EA010140EA0200E7
:1045B80081EA0301B4EB5C04C2BFD4EB0C0541EA09
:1045C800045170BD41F480114FF0000E013C00F31E
:1045D800AB8014F1360FDEBF002001F0004170BD42
:1045E800C4F10004203C35DA0C341BDC04F114045B
:1045F800C4F1200500FA05F320FA04F001FA05F2E7
:1046080040EA020001F0004221F0004110EBD370B3
:1046180021FA04F642EB06015EEA430E08BF20EADF
:10462800D37070BDC4F10C04C4F1200500FA04F382
:1046380020FA05F001FA04F240EA020001F0004114
:1046480010EBD37041F100015EEA430E08BF20EA87
:10465800D37070BDC4F1200500FA05F24EEA020ECF
:1046680020FA04F301FA05F243EA020321FA04F0FE
:1046780001F0004121FA04F220EA020000EBD370B5
:104688005EEA430E08BF20EAD37070BD94F0000FB5
:104698000FD101F00046400041EB010111F4801FE9
:1046A80008BF013CF7D041EA060195F0000F18BF9A
:1046B800704703F00046520043EB030313F4801FD6
:1046C80008BF013DF7D043EA0603704794EA0C0F90
:1046D8000CEA135518BF95EA0C0F0CD050EA4106A6
:1046E80018BF52EA4306D1D181EA030101F0004123
:1046F8004FF0000070BD50EA410606BF104619464B
:1047080052EA430619D094EA0C0F02D150EA013656
:1047180013D195EA0C0F05D152EA03361CBF104697
:1047280019460AD181EA030101F0004141F0FE4136
:1047380041F470014FF0000070BD41F0FE4141F4BA
:10474800780170BD70B54FF0FF0C4CF4E06C1CEABA
:1047580011541DBF1CEA135594EA0C0F95EA0C0F6F
:1047680000F0A7F8A4EB050481EA030E52EA03352A
:104778004FEA013100F088804FEA03334FF080554B
:1047880045EA131343EA12634FEA022245EA111578
:1047980045EA10654FEA00260EF000419D4208BF29
:1047A800964244F1FD0404F5407402D25B084FEAD6
:1047B8003202B61A65EB03055B084FEA32024FF482
:1047C80080104FF4002CB6EB020E75EB030E22BFDF
:1047D800B61A754640EA0C005B084FEA3202B6EB9F
:1047E800020E75EB030E22BFB61A754640EA5C004E
:1047F8005B084FEA3202B6EB020E75EB030E22BFDE
:10480800B61A754640EA9C005B084FEA3202B6EBDE
:10481800020E75EB030E22BFB61A754640EADC009D
:1048280055EA060E18D04FEA051545EA16754FEAFF
:1048380006164FEAC30343EA52734FEAC2025FEA1D
:104848001C1CC0D111F4801F0BD141EA00014FF0AC
:1048580000004FF0004CB6E711F4801F04BF01437D
:104868000020B4F1FD0C88BFBCF5E06F3FF6AFAE99
:10487800B5EB030C04BFB6EB020C5FEA500C50F129
:10488800000041EB045170BD0EF0004E4EEA1131AC
:1048980014EB5C04C2BFD4EB0C0541EA045170BDB3
:1048A80041F480114FF0000E013C90E645EA060EF7
:1048B8008DE60CEA135594EA0C0F08BF95EA0C0F25
:1048C8003FF43BAF94EA0C0F0AD150EA01347FF46D
:1048D80034AF95EA0C0F7FF425AF104619462CE744
:1048E80095EA0C0F06D152EA03353FF4FDAE1046A7
:1048F800194622E750EA410618BF52EA43067FF4F8
:10490800C5AE50EA41047FF40DAF52EA43057FF487
:10491800EBAE12E74FF0FF3C06E000BF4FF0010C92
:1049280002E000BF4FF0010C4DF804CD4FEA410CF6
:104938007FEA6C5C4FEA430C18BF7FEA6C5C1BD0C3
:1049480001B050EA410C0CBF52EA430C91EA030F44
:1049580002BF90EA020F0020704710F1000F91EAA1
:10496800030F58BF994208BF90422CBFD8176FEA6F
:10497800E37040F0010070474FEA410C7FEA6C5C3D
:1049880002D150EA013C07D14FEA430C7FEA6C5C44
:10499800D6D152EA033CD3D05DF8040B704700BF70
:1049A8008446104662468C461946634600E000BFBE
:1049B80001B5FFF7B7FF002848BF10F1000F01BD90
:1049C8004DF808EDFFF7F4FF0CBF012000205DF85B
:1049D80008FB00BF4DF808EDFFF7EAFF34BF0120E0
:1049E80000205DF808FB00BF4DF808EDFFF7E0FF79
:1049F80094BF012000205DF808FB00BF4DF808EDCA
:104A0800FFF7CEFF94BF012000205DF808FB00BF30
:104A18004DF808EDFFF7C4FF34BF012000205DF812
:104A280008FB00BF4A0011D212F5001211D20DD5B1
:104A38006FF47873B3EB62520ED44FEAC12343F09C
:104A4800004343EA505323FA02F070474FF0000046
:104A5800704750EA013002D14FF0FF3070474FF0F5
:104A6800000070474FEA4102B2F1E04324BFB3F5BA
:104A7800001CDCF1FE5C0DD901F0004C4FEAC002CD
:104A88004CEA5070B2F1004F40EB830008BF20F0B1
:104A98000100704711F0804F21D113F13872BCBF6B
:104AA80001F00040704741F480114FEA5252C2F1C0
:104AB8001802C2F1200C10FA0CF320FA02F018BF09
:104AC80040F001004FEAC1234FEAD32303FA0CFC5C
:104AD80040EA0C0023FA02F34FEA4303CCE77FEAEB
:104AE800625307D150EA01331EBF4FF0FE4040F435
:104AF8004000704701F0004040F0FE4040F40000E4
:104B0800704700BF80F0004002E000BF81F0004124
:104B180042001FBF5FEA410392EA030F7FEA226C5B
:104B28007FEA236C6AD04FEA1262D2EB1363C1BFEB
:104B3800D218414048404140B8BF5B42192B88BF5A
:104B4800704710F0004F40F4000020F07F4018BF7D
:104B5800404211F0004F41F4000121F07F4118BF9D
:104B6800494292EA030F3FD0A2F1010241FA03FC45
:104B780010EB0C00C3F1200301FA03F100F000432D
:104B880002D5494260EB4000B0F5000F13D3B0F1F5
:104B9800807F06D340084FEA310102F10102FE2A64
:104BA80051D2B1F1004F40EBC25008BF20F00100D4
:104BB80040EA03007047490040EB000010F4000F82
:104BC800A2F10102EDD1B0FA80FCACF1080CB2EB15
:104BD8000C0200FA0CF0AABF00EBC2505242184374
:104BE800BCBFD0401843704792F0000F81F4000119
:104BF80006BF80F400000132013BB5E74FEA4103EC
:104C08007FEA226C18BF7FEA236C21D092EA030F57
:104C180004D092F0000F08BF0846704790EA010FD1
:104C28001CBF0020704712F07F4F04D1400028BFFE
:104C380040F00040704712F100723CBF00F50000E0
:104C4800704700F0004343F0FE4040F40000704716
:104C58007FEA226216BF08467FEA236301464202C2
:104C680006BF5FEA412390EA010F40F480007047D5
:104C78004FF0000304E000BF10F0004348BF40427B
:104C88005FEA000C08BF704743F0964301464FF0B7
:104C980000001CE050EA010208BF70474FF0000313
:104CA8000AE000BF50EA010208BF704711F0004354
:104CB80002D5404261EB41015FEA010C02BF844624
:104CC8000146002043F0B64308BFA3F18053A3F583
:104CD8000003BCFA8CF2083AA3EBC25310DB01FACA
:104CE80002FC634400FA02FCC2F12002BCF1004F4E
:104CF80020FA02F243EB020008BF20F001007047DF
:104D080002F1200201FA02FCC2F1200250EA4C0032
:104D180021FA02F243EB020008BF20EADC70704778
:104D280053B94AB9002908BF00281CBF4FF0FF310A
:104D38004FF0FF3000F0B0B882B0EC462DE90050DB
:104D480000F092F8DDF804E002B00CBC704700BF38
:104D580007EE900AF5EEC07AF1EE10FA01D400F0F1
:104D680021B808B580F0004000F01CF8404261EB23
:104D7800410108BD38B50022002304460D46FFF75F
:104D880029FE28B920462946BDE8384000F030B849
:104D9800204605F1004100F02BF8404261EB41014B
:104DA80038BD00BFD0B5FFF74FFB00220E4B0646BB
:104DB8000F46FFF79DFBFFF735FE0446FFF722FB82
:104DC80000220A4BFFF794FB02460B463046394651
:104DD800FFF7DAF9FFF726FE2346002242EA00022F
:104DE80010461946D0BD00BF0000F03D0000F0415C
:104DF800D0B500220E4B06460F46FFF779FBFFF7AA
:104E080011FE0446FFF7FEFA00220A4BFFF770FB7B
:104E180002460B4630463946FFF7B6F9FFF702FE61
:104E28002346002242EA000210461946D0BD00BFC0
:104E38000000F03D0000F0412DE9F041069C1546C8
:104E480006460F46984600F029F805FB01F300FBDB
:104E58000838A5FB0023B21A434467EB0303C4E9EF
:104E68000023BDE8F08100BF2DE9F041069C904683
:104E780006460F461D4600F05FF900FB05F5A0FB4E
:104E8800082308FB0155B21A2B4467EB0303C4E956
:104E98000023BDE8F08100BF704700BF00292DE95D
:104EA800F043C0F2A6800026002BC0F29C80884602
:104EB80094469E46154604460F46002B3DD18A422D
:104EC80059D9B2FA82F33BB1C3F120029F4020FACC
:104ED80002F29D4017439C40290C220CB7FBF1FEBF
:104EE800A8B201FB1E7742EA074700FB0EF3BB425C
:104EF8000AD97F190EF1FF3280F00581BB4240F2DA
:104F08000281AEF1020E2F44FF1AA4B2B7FBF1F3EF
:104F180001FB137744EA074700FB03F0B84208D9BE
:104F28007F1903F1FF3280F0F080B84240F2ED8043
:104F3800023B43EA0E43002203E08B420FD90022D2
:104F48001346341C18BF012460424FF0000565EB7E
:104F580045015840514000196941BDE8F083B3FA52
:104F680083F2002A40F086808B4202D3844500F207
:104F7800DB800123E5E712B90123B3FBF2F5B5FAAB
:104F880085F000283BD1781B4FEA154E1FFA85FCA7
:104F98000122B0FBFEF8210C0EFB180741EA074777
:104FA8000CFB08F3BB4207D97F1908F1FF3102D285
:104FB800BB4200F2BD808846FF1AA4B2B7FBFEF3DD
:104FC8000EFB137744EA07470CFB03FCBC4507D9E3
:104FD8007F1903F1FF3102D2BC4500F2A7800B46CE
:104FE80043EA0843ADE752426FEA060663EB430320
:104FF8005DE7404261EB41014FF0FF3654E7C0F1F5
:10500800200224FA02F107FA00F385404FEA154E10
:10501800D7401943B7FBFEF20B0C0EFB12771FFAB1
:1050280085FC43EA07430CFB02F79F4204FA00F4AD
:1050380007D95B1902F1FF3074D29F4272D9023A44
:105048002B44DF1B89B2B7FBFEF80EFB187341EA4D
:1050580003430CFB08F79F4208D95B1908F1FF319D
:105068005CD29F425AD9A8F102082B44D81B48EABF
:1050780002428EE7C2F120032CFA03F10EFA02FE77
:1050880020FA03F741EA0E0E08FA02F028FA03F1B3
:105098004FEA1E453843B1FBF5F8030C05FB181120
:1050A8001FFA8EF743EA014107FB08F38B420CFA1B
:1050B80002FC09D911EB0E0108F1FF3930D28B42FD
:1050C8002ED9A8F102087144C91A80B2B1FBF5F3D0
:1050D80005FB131140EA014107FB03F78F4208D98A
:1050E80011EB0E0103F1FF3016D28F4214D9023BA7
:1050F800714443EA0843C91BA3FB0C89494509D3FA
:1051080005D000221DE79646FEE6134611E79440B7
:105118004445F6D2013BF4E70346EAE78846A5E7AB
:10512800C846D1E702468CE713460AE7023B57E731
:10513800A8F102082F443FE72DE9F041002B44D1A4
:105148008A42154604464FD9B2FA82F70E464FB145
:10515800C7F12003B94020FA03F602FA07F50E4317
:1051680000FA07F44FEA154E230CB6FBFEF0AFB277
:105178000EFB106143EA014307FB00F1994209D98C
:105188005B1900F1FF3280F0EC80994240F2E9802F
:1051980002382B445A1AA4B2B2FBFEF30EFB1322B8
:1051A80044EA024207FB03F7974208D9521903F170
:1051B800FF3180F0D880974240F2D580023B43EA25
:1051C800004000263146BDE8F0818B4247D8B3FA4B
:1051D80083F6002E48D18B4202D3824200F2CD8062
:1051E80001203146BDE8F08112B90125B5FBF2F581
:1051F800B5FA85F8B8F1000F77D14A1B4FEA154E7A
:10520800AFB20126B2FBFEF0230C0EFB102143EADD
:10521800014107FB00F38B4207D9491900F1FF321E
:1052280002D28B4200F2BA801046C91AA4B2B1FB6E
:10523800FEF30EFB131144EA014407FB03F7A742F0
:1052480008D9641903F1FF3280F08F80A74240F239
:105258008C80023B43EA00403146BDE8F0810026DD
:1052680030463146BDE8F081C6F1200422FA04F543
:10527800B3402B4320FA04FC01FA06F721FA04F59F
:105288004FEA134E4CEA0707B5FBFEF8390C0EFB44
:1052980018551FFA83FC41EA05450CFB08F1A942A1
:1052A80002FA06F204D9ED1808F1FF3467D3A046D4
:1052B8006D1ABFB2B5FBFEF40EFB145547EA054163
:1052C8000CFB04FC8C4504D9C91804F1FF355CD3E8
:1052D8002C4644EA0844CCEB0101A4FB0223994282
:1052E80048D344D0204600266CE7C8F1200401FAD0
:1052F80008F305FA08F520FA04F7E1404FEA154EDD
:105308001F43B1FBFEF63A0C0EFB16111FFA85FC83
:1053180042EA01430CFB06F29A4200FA08F407D964
:105328005B1906F1FF3137D29A4235D9023E2B4438
:105338009B1ABFB2B3FBFEF00EFB103347EA0343E0
:105348000CFB00F1994207D95B1900F1FF3221D219
:1053580099421FD902382B445A1A40EA0646674632
:1053680050E7104616E70B4629E7134672E7B040A8
:105378009042B7D2601E002624E7304622E7A942B1
:1053880095D9A8F102081D4492E78C45A0D9023CA2
:1053980019449EE71046DFE70E46C9E7023829445C
:1053A80043E700BF10F8012B11F8013B012A28BF81
:1053B8009A42F7D0D01A704780B483B000AF7860B3
:1053C8007B6803F108027B685A607B684FF0FF3204
:1053D8009A607B6803F108027B68DA607B6803F1F6
:1053E80008027B681A617B6800221A600C37BD4688
:1053F8005DF8047B704700BF80B483B000AF78606D
:105408007B6800221A610C37BD465DF8047B704743
:1054180080B485B000AF786039607B685B68FB60FA
:105428003B68FA685A60FB689A683B689A60FB6850
:105438009B683A685A60FB683A689A603B687A6881
:105448001A617B681B685A1C7B681A601437BD4652
:105458005DF8047B704700BF80B485B000AF78600A
:1054680039603B681B68BB60BB68B3F1FF3F03D181
:105478007B681B69FB600CE07B680833FB6002E01B
:10548800FB685B68FB60FB685B681A68BB689A42EC
:10549800F6D9FB685A683B685A603B685B683A68AB
:1054A8009A603B68FA689A60FB683A685A603B6899
:1054B8007A681A617B681B685A1C7B681A60143703
:1054C800BD465DF8047B704780B485B000AF786056
:1054D8007B681B69FB607B685B687A6892689A6086
:1054E8007B689B687A6852685A60FB685A687B6870
:1054F8009A4203D17B689A68FB685A607B680022ED
:105508001A61FB681B685A1EFB681A60FB681B68F7
:1055180018461437BD465DF8047B704780B58AB0DD
:1055280002AFF860B9603B601346FB80FB68002B54
:1055380005D15648564940F22D220FF055FABB6A5C
:10554800052B05D95348524940F22E220FF04CFA48
:10555800FB881846396B01F0B5F8B861BB69002BB8
:1055680076D0BB691A6BFB8803F18043013B9B0033
:1055780013447B617B6923F007037B617B6903F03C
:105588000703002B05D0444841494FF417720FF028
:105598002BFAFB880093B869B968BA6A7B6B00F08C
:1055A8008BFF7869F9683A6802F01AFE0246BB690F
:1055B8001A60FB6A002B02D0FB6ABA691A6002F013
:1055C80009FF364B1B680133344A1360344B1B68A0
:1055D800002B09D1324ABB691360304B1B68012B81
:1055E8000FD100F0C1FF0CE02E4B1B68002B08D137
:1055F8002B4B1B68DA6ABB6A9A4202D8284ABB69F5
:105608001360294B1B680133274A1360264B1A681D
:10561800BB691A64BB69DB6A1A46012303FA02F202
:10562800224B1B681343214A1360BB69DA6A13468D
:105638009B0013449B001E4A1A44BB69043310465E
:105648001946FFF7E5FE0123FB6102F0EFFE02E0D9
:105658004FF0FF33FB61FB69012B11D1114B1B6824
:10566800002B0DD00E4B1B68DA6ABB6A9A4207D230
:10567800104B4FF080521A60BFF34F8FBFF36F8FFC
:10568800FB6918462037BD4680BD00BF58D00308C7
:1056980064D0030880D00308E4D00308800D0020FC
:1056A800900C00208C0D00209C0D0020880D0020FF
:1056B800940C002004ED00E080B584B000AF786061
:1056C80002F088FE7B68002B02D1314B1B6800E09A
:1056D8007B68FB60FB6804331846FFF7F5FE03465A
:1056E800002B15D1FB68DA6A2A4913469B0013443C
:1056F8009B000B441B68002B0AD1FB68DB6A1A4627
:1057080001239340DA43244B1B681340224A136059
:10571800FB689B6A002B04D0FB6818331846FFF718
:10572800D3FEFB6804331D481946FFF771FE1C4B76
:105738001B6801331A4A13601A4B1B680133194A54
:10574800136002F073FE184B1B68002B1DD0104B22
:105758001B68FA689A4212D1144B1B68002B05D0BB
:105768001348144940F21E320FF03EF9124B4FF025
:1057780080521A60BFF34F8FBFF36F8F05E002F0BE
:1057880029FE01F08FF802F051FE1037BD4680BDAA
:10579800900C0020940C0020880D0020500D002053
:1057A800640D00209C0D00208C0D0020A40D00200D
:1057B80050D1030864D0030804ED00E080B586B03A
:1057C80000AF7860396000237B617B68002B05D1CE
:1057D8003648374940F23F320FF006F93B68002B54
:1057E80005D1344832494FF450720FF0FDF8324B6E
:1057F8001B68002B05D031482D4940F241320FF08B
:10580800F3F800F025FA2E4B1B683B617B681A6899
:105818003B681344FB607B681A683B699A420BD962
:105828007B681A68FB689A4211D9FA683B699A4200
:105838000DD901237B610AE07B681A68FB689A42EC
:1058480003D8FA683B699A4201D901237B617B68D6
:10585800FA681A607B69002B17D01A4B1B6804334F
:105868001846FFF731FE0346002B0BD1154B1B687A
:10587800DB6A1A4601239340DA43134B1B68134033
:10588800114A1360F86800F0E7FE00F0EFF9B8601D
:10589800BB68002B07D10D4B4FF080521A60BFF345
:1058A8004F8FBFF36F8F1837BD4680BD6CD103088B
:1058B80064D0030880D10308A40D002050D1030848
:1058C800840D0020900C0020880D002004ED00E0DD
:1058D80080B584B000AF78600023FB607B68002B44
:1058E8002BD01D4B1B68002B05D01C481C4940F2CF
:1058F800A3320FF079F800F0ABF91A4B1A687B68FD
:105908001344BB60184B1B6804331846FFF7DCFDD3
:105918000346002B0BD1144B1B68DB6A1A46012384
:105928009340DA43114B1B681340104A1360B86860
:1059380000F092FE00F09AF9F860FB68002B07D19E
:105948000B4B4FF080521A60BFF34F8FBFF36F8F2E
:105958001037BD4680BD00BFA40D002050D10308FC
:1059680064D00308840D0020900C0020880D0020CE
:1059780004ED00E080B584B000AF786002F02AFD45
:105988007B68002B02D1354B1B6800E07B68FB600D
:10599800FB6804331846FFF797FD0346002B15D123
:1059A800FB68DA6A2E4913469B0013449B000B449C
:1059B8001B68002B0AD1FB68DB6A1A460123934057
:1059C800DA43284B1B681340264A1360FB689B6A1E
:1059D800002B04D0FB6818331846FFF775FDFB68E9
:1059E800043321481946FFF713FD02F01FFD1B4B36
:1059F8001B68FA689A4223D11C4B1B68002B12D0F3
:105A08001B4B1B68002B05D01A481B4940F22E522D
:105A18000EF0EAFF194B4FF080521A60BFF34F8F18
:105A2800BFF36F8F16E0104B1A68154B1B689A422C
:105A380003D10A4B00221A600CE000F01DFB09E0BC
:105A48000A4B1B68002B05D002F0C4FC00F02AFFAB
:105A580002F0ECFC1037BD4680BD00BF900C002062
:105A6800940C0020880D0020680D00208C0D00206B
:105A7800A40D002050D1030864D0030804ED00E011
:105A8800800D002080B584B000AF78600023FB60F3
:105A98007B68BB607B68002B05D11248124940F235
:105AA80066520EF0A1FFBB685B69104A934201D1B0
:105AB800012300E00023002B0FD0BB689B6A0C4A2F
:105AC80093420AD0BB689B6A002B01D1012300E0F6
:105AD8000023002B01D00123FB60FB681846103718
:105AE800BD4680BDC4D1030864D00308680D0020FA
:105AF8003C0D002080B584B000AF78607B68FB6007
:105B08007B68002B05D1244824494FF4B2620EF07B
:105B18006BFFFB68002B3BD0214B1B68FA689A424D
:105B280036D002F057FCF868FFF7ACFF0346012BAC
:105B38002CD1FB6804331846FFF7C6FCFB68DB6A08
:105B48001A46012303FA02F2164B1B681343154A3F
:105B58001360FB68DA6A13469B0013449B00124AE1
:105B68001A44FB68043310461946FFF751FCFB68DA
:105B7800DA6A0B4B1B68DB6A9A4207D30B4B4FF070
:105B880080521A60BFF34F8FBFF36F8F02F04EFC45
:105B98001037BD4680BD00BFCCD1030864D00308D0
:105BA800900C0020880D0020940C002004ED00E0EB
:105BB80080B586B004AF002300931D4B01930023EA
:105BC8000293002303931B481B4996220023FFF7E7
:105BD800A5FC78607B68012B02D101F0E5FD7860B7
:105BE8007B68012B17D14FF05F0383F31188BFF354
:105BF8006F8FBFF34F8F3B60104B4FF0FF321A602F
:105C08000F4B01221A600F4B00221A601DF0F4FBA3
:105C180002F056FB08E07B68002B05D10A480B49C7
:105C280040F251620EF0E0FE0837BD4680BD00BF6D
:105C38007C0D0020AD640008DCD10308A00D002015
:105C48008C0D0020840D0020E4D1030864D00308E3
:105C580080B400AF044B1B680133034A1360BD4690
:105C68005DF8047B704700BFA40D002080B582B0AA
:105C780000AF00237B603D4B1B68002B05D13C48DF
:105C88003C4940F28E620EF0AFFE02F0A3FB374BA8
:105C98001B68013B354A1360344B1B68002B5DD1F0
:105CA800354B1B68002B59D030E0344BDB68DB6880
:105CB8003B603B6818331846FFF706FC3B68043323
:105CC8001846FFF701FC3B68DB6A1A46012303FA12
:105CD80002F22B4B1B681343294A13603B68DA6AAC
:105CE80013469B0013449B00264A1A443B6804331E
:105CF80010461946FFF78CFB3B68DA6A224B1B6893
:105D0800DB6A9A4202D3214B01221A601B4B1B68A3
:105D1800002BCAD11E4B1B68002B11D00CE000F0E1
:105D2800CBF80346002B02D0184B01221A60184BFF
:105D38001B68013B164A1360154B1B68002BEED1FC
:105D4800124B1B68012B09D101237B60114B4FF0CB
:105D580080521A60BFF34F8FBFF36F8F02F066FB5C
:105D68007B6818460837BD4680BD00BFA40D0020DB
:105D7800ECD1030864D00308800D00203C0D0020FE
:105D8800880D0020940C0020900C0020940D002019
:105D9800900D002004ED00E080B483B000AF054B07
:105DA8001B687B607B6818460C37BD465DF8047B32
:105DB800704700BF840D002080B586B000AFF86042
:105DC800B9607A6000237B6106233B61FFF740FFDF
:105DD800334B1B68BA689A425AD33B69013B3B6113
:105DE8007B695B01FA68D1183A6913469B00134432
:105DF8009B002C4A134408461946012200F09AFCDD
:105E080002467B6913447B613B69002BE5D17B69C2
:105E18005B01FA681A44244B1B6810461946022293
:105E280000F088FC02467B6913447B617B695B0157
:105E3800FA681A441D4B1B6810461946022200F0E6
:105E480079FC02467B6913447B617B695B01FA68D4
:105E5800134418461649042200F06CFC02467B697C
:105E680013447B617B695B01FA6813441846114946
:105E7800032200F05FFC02467B6913447B617B6868
:105E8800002B05D01DF0FCFA02460B467B681A6011
:105E9800FFF7ECFE7B6918461837BD4680BD00BF8A
:105EA800800D0020940C0020340D0020380D0020B7
:105EB800500D0020680D002080B586B000AF00238B
:105EC8007B61524A524B1B681360524B1B68002B74
:105ED80040F08B804E4B1B6801334D4A13604C4B8E
:105EE8001B683B613B69002B1BD14B4B1B681B6834
:105EF800002B05D049484A4940F2AA720EF074FDB9
:105F0800454B1B68FB60474B1B68434A1360454A77
:105F1800FB681360444B1B680133434A136000F06D
:105F2800C1FC424B1B683A699A424FD33A4B1B68F3
:105F38001B68002B01D1012300E00023002B04D0B3
:105F48003A4B4FF0FF321A6040E0334B1B68DB6876
:105F5800DB68BB60BB685B687B603A697B689A42B8
:105F680003D2324A7B68136030E0BB6804331846BA
:105F7800FFF7AAFABB689B6A002B04D0BB681833EA
:105F88001846FFF7A1FABB68DB6A1A46012303FA31
:105F980002F2274B1B681343254A1360BB68DA6A71
:105FA80013469B0013449B00224A1A44BB680433DF
:105FB80010461946FFF72CFABB68DA6A1E4B1B68B5
:105FC800DB6A9A4201D301237B61AFE71A4B1B6856
:105FD800DA6A184913469B0013449B000B441B685C
:105FE800012B07D901237B6104E0144B1B680133A3
:105FF800124A1360124B1B68002B01D001237B61EE
:106008007B6918461837BD4680BD00BF080000E010
:10601800840D0020A40D0020340D002020D2030898
:1060280064D00308380D0020980D0020A00D002032
:10603800880D0020940C0020900C0020900D00206A
:10604800940D002080B584B000AF786039607B681B
:10605800002B03D1074B1B68FB6001E07B68FB60EA
:1060680002F0B8F9FB683A681A6502F0DFF91037F0
:10607800BD4680BD900C002080B584B000AF3B4B7E
:106088001B68002B03D03A4B01221A606BE0384B97
:1060980000221A601DF0F4F902460B46354B1A60CF
:1060A800344B1A68344B1B689A4209D9334B1B6826
:1060B800596D304A1068304A1268821A0A445A6583
:1060C8002C4B1B682C4A13602C4B1B681A682B4BF3
:1060D8001B681B6B9A4208D8284B1A68274B1B6809
:1060E80034331046194606F095F8254B1B687B603B
:1060F8007B68B3FA83F3FB70FB78C3F11F03FB6083
:106108002049FA6813469B0013449B000B441B6804
:10611800002B05D11C481D4940F6C8020EF064FC4E
:10612800FA6813469B0013449B00164A1344BB604D
:10613800BB685B685A68BB685A60BB685A68BB68CA
:1061480008339A4204D1BB685B685A68BB685A60D6
:10615800BB685B68DB68094A13600D4A074B1B681C
:1061680034331B6813601037BD4680BDA40D002072
:10617800940D0020AC0D0020A80D0020900C0020EC
:10618800880D0020940C00204CD2030864D003082A
:10619800040000E080B584B000AF786039607B68A7
:1061A800002B05D11C481D4940F6DA020EF01CFCF4
:1061B8001B4B1B68183378681946FFF74DF9184BC5
:1061C8001B6804331846FFF77FF90346002B0BD1F1
:1061D800134B1B68DB6A1A4601239340DA43114BC1
:1061E8001B6813400F4A13603B68B3F1FF3F07D1A8
:1061F8000B4B1B6804330C481946FFF709F907E0F5
:106208000A4B1A683B681344FB60F86800F024FAEC
:106218001037BD4680BD00BF94D2030864D0030880
:10622800900C0020880D0020680D0020840D0020AF
:1062380080B586B000AFF860B9607A60FB68002B63
:1062480005D11C481C4940F659120EF0CDFB1B4BDA
:106258001B681833F8681946FFF7DAF8174B1B68FC
:1062680004331846FFF730F90346002B0BD1134BC4
:106278001B68DB6A1A4601239340DA43104B1B68FC
:1062880013400F4A13607B68012B07D10B4B1B6827
:1062980004330C481946FFF7BBF807E00A4B1A68A5
:1062A800BB6813447B61786900F0D6F91837BD469E
:1062B80080BD00BF94D2030864D00308900C00206E
:1062C800880D0020680D0020840D002080B584B062
:1062D80000AF78607B68DB68DB68BB60BB68002B5D
:1062E80005D12448244940F6B4120EF07DFBBB6862
:1062F80018331846FFF7E8F8204B1B68002B1ED10F
:10630800BB6804331846FFF7DFF8BB68DB6A1A4638
:10631800012303FA02F21A4B1B681343184A13604D
:10632800BB68DA6A13469B0013449B00154A1A445B
:10633800BB68043310461946FFF76AF805E0BB68E6
:10634800183311481946FFF763F8BB68DA6A0F4B30
:106358001B68DB6A9A4205D90123FB600C4B0122BA
:106368001A6001E00023FB60FB6818461037BD4641
:1063780080BD00BFBCD2030864D00308A40D002070
:10638800880D0020940C00203C0D0020900C00206B
:10639800940D002080B582B000AF78607B68002B38
:1063A80005D10848084940F614220EF01DFB074B9A
:1063B8001A687B681A60064B1A687B685A60083747
:1063C800BD4680BDECD2030864D00308980D0020B8
:1063D800840D002080B584B000AF786039607B6898
:1063E800002B05D12448254940F61E220EF0FCFA60
:1063F8003B68002B05D12248204940F61F220EF0A9
:10640800F3FA01F0E7FF1F4B1B68BB603B681B6892
:10641800B3F1FF3F02D10023FB6026E07B681A68D6
:10642800194B1B689A4207D07B685A68BB689A4226
:1064380002D80123FB6018E07B685B68BA68D21A4F
:106448003B681B689A420ED23B681A687B68596899
:10645800BB68CB1A1A443B681A607868FFF79AFF42
:106468000023FB6001E00123FB6001F0DFFFFB6814
:1064780018461037BD4680BDECD2030864D0030827
:10648800F8D20308840D0020980D002080B400AFD6
:10649800034B01221A60BD465DF8047B704700BFBC
:1064A800940D002080B582B000AF786000F09AF8B3
:1064B80006F002F9FAE700BF80B586B000AFF860D1
:1064C800B9607A603B6000237B6113E0BA687B693E
:1064D80013441978FA687B69134430330A461A71F1
:1064E800BA687B6913441B78002B00D105E07B69EF
:1064F80001337B617B69092BE8D9FB68002283F8AB
:106508003D207B68052B01D905237B60FB687A68F1
:10651800DA62FB687A689A64FB680022DA64FB68CE
:1065280004331846FEF768FFFB6818331846FEF771
:1065380063FFFB68FA681A617B68C3F10602FB68AF
:106548009A61FB68FA685A62FB6800221A65FB6860
:1065580000225A65FB6800229A65FB68002283F8CE
:106568005C201837BD4680BD80B582B000AF0023DF
:106578007B600CE07A6813469B0013449B00114A29
:1065880013441846FEF718FF7B6801337B607B686D
:10659800052BEFD90C48FEF70FFF0C48FEF70CFF50
:1065A8000B48FEF709FF0B48FEF706FF0A48FEF7FF
:1065B80003FF0A4B044A1A60094B044A1A60083759
:1065C800BD4680BD940C00200C0D0020200D00203D
:1065D8003C0D0020500D0020680D0020340D0020D7
:1065E800380D002080B582B000AF28E0FFF730FBFF
:1065F800164B1B68002B0CBF01230023DBB27B600A
:10660800FFF734FB7B68002B19D101F0E3FE0F4B39
:10661800DB68DB683B603B6804331846FEF754FFD1
:106628000B4B1B68013B0A4A13600A4B1B68013B72
:10663800084A136001F0FAFE386800F023F9054BA8
:106648001B68002BD2D10837BD4680BD500D0020F5
:10665800800D0020640D002080B582B000AF786006
:10666800134B1B687A685A60124B1B687A689A4207
:1066780009D2114B1A680E4B1B6804331046194691
:10668800FEF7EAFE10E00D4B1A68094B1B6804334D
:1066980010461946FEF7E0FE094B1B687A689A42D5
:1066A80002D2074A7B6813600837BD4680BD00BF29
:1066B800900C0020840D0020380D0020340D00209F
:1066C800A00D002080B584B000AF03463960FB8080
:1066D8003B68002B06D1FB889B00184601F0A4FB01
:1066E800034600E03B68BB60BB68002B0ED060200F
:1066F80001F09AFBF860FB68002B03D0FB68BA68CE
:106708001A6305E0B86801F04FFC01E00023FB6064
:10671800FB68002B08D0FB681A6BFB889B001046AF
:10672800A5211A4636F0C3FBFB6818461037BD464C
:1067380080BD00BF90B58BB000AFF860B96013465C
:10674800FB7100237B62BB681B68002B79D0BB6898
:106758003B623B6A5B685A683B6A5A603B6A5A68A4
:106768003B6A08339A4204D13B6A5B685A683B6AC1
:106778005A603B6A5B68DB68FB61BB68BB61BB69ED
:106788005B685A68BB695A60BB695A68BB69083359
:106798009A4204D1BB695B685A68BB695A60BB6995
:1067A8005B68DB687B617B6A5B01FA6813447A6922
:1067B8001A607B6A5B01FA6813447A6934325A605A
:1067C8007B6A5B01FA6813447A69126C9A607B6A87
:1067D8005B01FA681344FA791A737B6A5B01FA68F9
:1067E80013447A69D26A1A61FB79032B09D17B6950
:1067F8009B6A002B05D07B6A5B01FA68134402226E
:106808001A737B6A5B01FA6813447A69926C5A615D
:106818007B6A5B01FA6813447A69526D9A617B6AF4
:106828005B01FA68D4187B691B6B184600F00EF8F8
:106838000346A3837B6A01337B627A69FB699A42C8
:106848009BD17B6A18462C37BD4690BD80B485B075
:1068580000AF78600023FB6005E07B6801337B6054
:10686800FB680133FB607B681B78A52BF5D0FB68C0
:106878009B08FB60FB689BB218461437BD465DF861
:10688800047B704780B582B000AF78607B681B6B73
:10689800184601F089FB786801F086FB0837BD4689
:1068A80080BD00BF80B483B000AF0E4B1B681B686F
:1068B800002B01D1012300E00023002B04D00A4B58
:1068C8004FF0FF321A6008E0064B1B68DB68DB6894
:1068D8007B607B685B68044A13600C37BD465DF8D3
:1068E800047B7047340D0020A00D002080B483B0D5
:1068F80000AF0B4B1B68002B02D101237B6008E023
:10690800084B1B68002B02D102237B6001E00023A7
:106918007B607B6818460C37BD465DF8047B704782
:106928008C0D0020A40D002080B584B000AF7860E5
:106938007B68FB607B68002B64D0FB68DA6A334BAA
:106948001B68DB6A9A425DD2FB689B69002B06DBF9
:106958002E4B1B68DB6AC3F10602FB689A61FB6871
:106968005969FB68DA6A13469B0013449B00284A5E
:106978001344994201D1012300E00023002B3CD0AD
:10698800FB6804331846FEF79FFD0346002B15D11C
:10699800FB68DA6A1E4913469B0013449B000B44AC
:1069A8001B68002B0AD1FB68DB6A1A460123934057
:1069B800DA43184B1B681340164A1360134B1B68C5
:1069C800DA6AFB68DA62FB68DB6A1A46012303FAB3
:1069D80002F2104B1B6813430E4A1360FB68DA6A15
:1069E80013469B0013449B00094A1A44FB6804336E
:1069F80010461946FEF70CFD04E0044B1B68DA6AE2
:106A0800FB68DA621037BD4680BD00BF900C0020DD
:106A1800940C0020880D002080B584B000AF786009
:106A28007B68BB600023FB607B68002B66D0364B1D
:106A38001B68BA689A4205D03448354940F6A752CF
:106A48000DF0D2FFBB68DB6C002B05D13148304913
:106A580040F6A9520DF0C8FFBB68DB6C5A1EBB6834
:106A6800DA64BB68DA6ABB689B6C9A4246D0BB683A
:106A7800DB6C002B42D1BB6804331846FEF724FDBB
:106A88000346002B15D1BB68DA6A234913469B00DD
:106A980013449B000B441B68002B0AD1BB68DB6ABC
:106AA8001A4601239340DA431C4B1B6813401B4AC8
:106AB8001360BB689A6CBB68DA62BB68DB6AC3F1B7
:106AC8000602BB689A61BB68DB6A1A46012303FAAF
:106AD80002F2124B1B681343104A1360BB68DA6A50
:106AE80013469B0013449B000B4A1A44BB680433AB
:106AF80010461946FEF78CFC0123FB60FB6818461C
:106B08001037BD4680BD00BF900C002008D3030895
:106B180064D0030820D30308940C0020880D0020BB
:106B280080B400AF074B1B68002B04D0054B1B68D3
:106B3800DA6C0132DA64034B1B681846BD465DF80F
:106B4800047B7047900C002080B584B000AF78605B
:106B580039607B68FB60FB68002B05D12B482C490A
:106B68004FF484720DF040FF01F034FCFB681A68A2
:106B7800FB68DB6BF968096C01FB03F31A44FB68DB
:106B88005A60FB6800229A63FB681A68FB689A607F
:106B9800FB681A68FB68DB6B013BF968096C01FB51
:106BA80003F31A44FB68DA60FB684FF0FF325A645B
:106BB800FB684FF0FF329A643B68002B14D1FB68E6
:106BC8001B69002B1AD0FB6810331846FFF77EFBB1
:106BD8000346012B12D10F4B4FF080521A60BFF3BE
:106BE8004F8FBFF36F8F09E0FB6810331846FEF72D
:106BF800E3FBFB6824331846FEF7DEFB01F016FCC6
:106C0800012318461037BD4680BD00BF88D303084E
:106C180090D3030804ED00E080B588B000AFF860B9
:106C2800B9601346FB710023BB61FB68002B05D1DB
:106C38002248234940F243120DF0D6FEBB68002BD0
:106C480002D10023FB6105E0FB68BA6802FB03F38D
:106C58000133FB61FB695433184601F0E5F87861AC
:106C68007B69002B1BD0BB68002B03D17B697A6939
:106C78001A6004E07B6903F154027B691A607B693E
:106C8800FA68DA637B69BA681A6478690121FFF7E0
:106C98005BFF7B69FA7983F850207B69BB61BB692C
:106CA800002B05D10748064940F27F120DF09CFEE3
:106CB800BB6918462037BD4680BD00BFACD303086A
:106CC80090D30308D0D3030880B584B000AF03463F
:106CD800FB71542001F0A8F8F860FB68002B30D055
:106CE800FB6800225A60FB6800221A60FB680022D9
:106CF8009A60FB680022DA60FB6800229A63FB68EE
:106D08000122DA63FB6800221A64FB684FF0FF3245
:106D18005A64FB684FF0FF329A64FB68FA7983F88B
:106D28005020FB6810331846FEF746FBFB682433F7
:106D38001846FEF741FBF86800210022002300F006
:106D480005F8FB6818461037BD4680BD80B58AB087
:106D580000AFF860B9607A603B6000237B62FB6833
:106D68003B623B6A002B05D17648774940F267229F
:106D78000DF03AFEBB68002B03D13B6A1B6C002B5D
:106D880001D1012300E00023002B05D16F486E4993
:106D98004FF41A720DF028FE3B68022B03D13B6AB0
:106DA800DB6B012B01D1012300E00023002B05D16F
:106DB8006748654940F269220DF016FEFFF796FD17
:106DC8000346002B02D17B68002B01D1012300E090
:106DD8000023002B05D15F485B494FF41B720DF06F
:106DE80003FE01F0F7FA3B6A9A6B3B6ADB6B9A4247
:106DF80002D33B68022B2FD1574A3B6ADB6C43F422
:106E080080731360386AB9683A6800F047FBF86124
:106E18003B6A5B6A002B10D03B6A24331846FFF7A5
:106E280055FA0346012B13D14C4B4FF080521A6090
:106E3800BFF34F8FBFF36F8F0AE0FB69002B07D0BA
:106E4800464B4FF080521A60BFF34F8FBFF36F8FDE
:106E580001F0ECFA012371E07B68002B09D101F005
:106E6800E5FA3D4A3B6ADB6C43F400731360002388
:106E780064E07B6A002B06D107F114031846FFF77C
:106E880089FA01237B6201F0D1FAFEF7E1FE01F0F5
:106E9800A1FA3B6A5B6CB3F1FF3F02D13B6A002267
:106EA8005A643B6A9B6CB3F1FF3F02D13B6A0022F4
:106EB8009A6401F0BBFA07F114023B1D104619460B
:106EC800FFF788FA0346002B2AD1386A00F0DCFB6A
:106ED8000346002B1ED0204A3B6ADB6C43F48063D8
:106EE80013603B6A03F110027B6810461946FFF7EE
:106EF80051F9386A00F066FBFEF7B8FE0346002B2E
:106F08001BD1164B4FF080521A60BFF34F8FBFF35F
:106F18006F8F12E0386A00F055FBFEF7A7FE60E7B6
:106F2800386A00F04FFBFEF7A1FE0B4A3B6ADB6CA8
:106F380043F400731360002300E052E71846283733
:106F4800BD4680BD88D3030890D30308D8D303086F
:106F580028D4030870D403080C0000E004ED00E016
:106F680080B58AB000AFF860B9607A603B60FB68B2
:106F78003B623B6A002B05D139483A4940F224422A
:106F88000DF032FDBB68002B03D13B6A1B6C002B54
:106F980001D1012300E00023002B05D132483149FB
:106FA80040F225420DF020FD3B68022B03D13B6ADD
:106FB800DB6B012B01D1012300E00023002B05D15D
:106FC8002A48284940F226420DF00EFD01F0C0FA89
:106FD800EFF311824FF05F0383F31188BFF36F8FD4
:106FE800BFF34F8FBA617B61BB69FB613B6A9A6BE8
:106FF8003B6ADB6B9A4202D33B68022B24D1386A86
:10700800B9683A6800F04AFA3B6A9B6CB3F1FF3FF3
:1070180012D13B6A5B6A002B13D03B6A24331846B3
:10702800FFF754F90346002B0BD07B68002B08D0E0
:107038007B6801221A6004E03B6A9B6C5A1C3B6A1D
:107048009A6401237B6201E000237B62FB693B6158
:107058003B6983F311887B6A18462837BD4680BD93
:1070680088D3030890D30308D8D3030828D4030887
:1070780080B588B000AF786039607B68BB61BB6958
:10708800002B05D13448354940F2BF420DF0ACFC25
:10709800BB691B6C002B05D03148304940F2C34214
:1070A8000DF0A2FCBB691B68002B03D1BB695B68B0
:1070B800002B01D1012300E00023002B05D1294832
:1070C80026494FF499620DF08FFC01F041FAEFF375
:1070D80011824FF05F0383F31188BFF36F8FBFF303
:1070E8004F8F3A61FB603B697B61BB699A6BBB69F7
:1070F800DB6B9A4224D2BB699B6B5A1CBB699A63AF
:10710800BB699B6CB3F1FF3F12D1BB695B6A002B73
:1071180013D0BB6924331846FFF7D8F80346002B71
:107128000BD03B68002B08D03B6801221A6004E0B2
:10713800BB699B6C5A1CBB699A640123FB6101E023
:107148000023FB617B69BB60BB6883F31188FB6923
:1071580018462037BD4680BD88D3030890D303085E
:10716800C8D40308E4D4030880B58AB000AFF86037
:10717800B9607A603B6000237B62FB683B623B6AD4
:10718800002B05D17748784940F25B520DF02CFC72
:10719800BB68002B03D13B6A1B6C002B01D1012378
:1071A80000E00023002B05D170486F4940F25C5283
:1071B8000DF01AFCFFF79AFB0346002B02D17B68FF
:1071C800002B01D1012300E00023002B05D16848E2
:1071D800654940F25F520DF007FC01F0FBF83B6A8D
:1071E8009B6B002B47D03B6ADB68FB61386AB96848
:1071F80000F0C2F93B68002B22D13B6A9B6B5A1EF8
:107208003B6A9A633B6A1B68002B04D1FFF788FC32
:1072180002463B6A5A603B6A1B69002B27D03B6ACF
:1072280010331846FFF752F80346012B1FD1514B74
:107238004FF080521A60BFF34F8FBFF36F8F16E085
:107248003B6AFA69DA603B6A5B6A002B0FD03B6ADB
:1072580024331846FFF73AF80346002B07D0454B6E
:107268004FF080521A60BFF34F8FBFF36F8F01F05A
:10727800DDF8012372E07B68002B03D101F0D6F81A
:1072880000236BE07B6A002B06D107F11403184634
:10729800FFF780F801237B6201F0C8F8FEF7D8FCFD
:1072A80001F098F83B6A5B6CB3F1FF3F02D13B6A8F
:1072B80000225A643B6A9B6CB3F1FF3F02D13B6AE0
:1072C80000229A6401F0B2F807F114023B1D10463F
:1072D8001946FFF77FF80346002B37D1386A00F0CC
:1072E800BDF90346002B2BD0234A3B6ADB6C43F4E1
:1072F800407313603B6A1B68002B08D101F06AF8E1
:107308003B6A5B681846FFF70FFB01F08FF83B6A92
:1073180003F124027B6810461946FEF73BFF386AE2
:1073280000F050F9FEF7A2FC0346002B15D1114BD3
:107338004FF080521A60BFF34F8FBFF36F8F0CE08E
:10734800386A00F03FF9FEF791FC46E7386A00F02A
:1073580039F9FEF78BFC002300E03EE71846283792
:10736800BD4680BD88D3030890D3030840D50308E1
:1073780070D4030804ED00E00C0000E080B58AB08A
:1073880000AFF860B9607A60FB683B623B6A002B2B
:1073980005D13048304940F215620DF025FBBB6835
:1073A800002B03D13B6A1B6C002B01D1012300E0A9
:1073B8000023002B05D12948274940F216620DF019
:1073C80013FB01F0C5F8EFF311824FF05F0383F36D
:1073D8001188BFF36F8FBFF34F8FBA617B61BB69B1
:1073E800FB613B6A9B6B002B28D0386AB96800F0B8
:1073F800C3F83B6A9B6B5A1E3B6A9A633B6A5B6C99
:10740800B3F1FF3F12D13B6A1B69002B13D03B6AD3
:1074180010331846FEF75AFF0346002B0BD07B6843
:10742800002B08D07B6801221A6004E03B6A5B6C81
:107438005A1C3B6A5A6401237B6201E000237B6289
:10744800FB693B613B6983F311887B6A18462837DF
:10745800BD4680BD88D3030890D3030840D50308F0
:1074680080B584B000AF78607B68002B05D10948EF
:1074780009494FF4D4620DF0B7FA00F0ABFF7B680E
:107488009B6BFB6000F0D2FFFB6818461037BD46C7
:1074980080BD00BFA8D5030890D3030880B586B087
:1074A80000AFF860B9607A6000237B61FB681B6CF1
:1074B800002B0DD1FB681B68002B52D1FB685B6861
:1074C8001846FFF7A9FA7861FB6800225A6048E07D
:1074D8007B68002B1AD1FB689A68FB681B6C104606
:1074E800B9681A4635F0D8FCFB689A68FB681B6CCB
:1074F8001A44FB689A60FB689A68FB685B689A4262
:107508002FD3FB681A68FB689A602AE0FB68DA6880
:10751800FB681B6C1046B9681A4635F0BDFCFB6861
:10752800DA68FB681B6C5B421A44FB68DA60FB682C
:10753800DA68FB681B689A4207D2FB685A68FB68DE
:107548001B6C5B421A44FB68DA607B68022B08D12B
:10755800FB689B6B002B04D0FB689B6B5A1EFB6877
:107568009A63FB689B6B5A1CFB689A637B69184695
:107578001837BD4680BD00BF80B582B000AF7860C7
:1075880039607B681B6C002B19D07B68DA687B68D4
:107598001B6C1A447B68DA607B68DA687B685B6816
:1075A8009A4203D37B681A687B68DA607B68DA687A
:1075B8007B681B6C386811461A4635F06DFC083735
:1075C800BD4680BD80B582B000AF786000F002FF94
:1075D80014E07B685B6A002B0AD07B68243318466A
:1075E800FEF774FE0346002B03D0FEF74FFF00E0C2
:1075F80008E07B689B6C5A1E7B689A647B689B6C6E
:10760800002BE6DC7B684FF0FF329A6400F00EFF37
:1076180000F0E0FE14E07B681B69002B0FD07B684C
:1076280010331846FEF752FE0346002B01D0FEF732
:107638002DFF7B685B6C5A1E7B685A6400E003E090
:107648007B685B6C002BE6DC7B684FF0FF325A648A
:1076580000F0ECFE0837BD4680BD00BF80B584B0A1
:1076680000AF786000F0B6FE7B689B6B002B02D100
:107678000123FB6001E00023FB6000F0D7FEFB68FC
:1076880018461037BD4680BD80B584B000AF78601D
:1076980000F0A0FE7B689A6B7B68DB6B9A4202D194
:1076A8000123FB6001E00023FB6000F0BFFEFB68E4
:1076B80018461037BD4680BD80B584B000AF7860ED
:1076C8007B68002B05D10B480B4940F607020DF0EB
:1076D8008BF97B689A6B7B68DB6B9A4202D101233A
:1076E800FB6001E00023FB60FB6818461037BD46CD
:1076F80080BD00BFA8D5030890D3030880B485B027
:1077080000AF786039600023FB6014E00E4AFB6824
:1077180052F83330002B0BD10B49FB683A6841F81B
:107728003320094AFB68DB0013447A685A6005E095
:10773800FB680133FB60FB68092BE7D91437BD46AA
:107748005DF8047B704700BFC418012080B586B07F
:1077580000AFF860B9607A60FB687B6100F03AFEC0
:107768007B695B6CB3F1FF3F02D17B6900225A64ED
:107778007B699B6CB3F1FF3F02D17B6900229A645D
:1077880000F054FE7B699B6B002B06D17B69243388
:107798001846B9687A68FEF74BFD7869FFF712FF5B
:1077A8001837BD4680BD00BF80B586B004AF002342
:1077B8007B6000F0D5FA114B1B68002B0FD001231A
:1077C80000930023019300230293002303930C48A2
:1077D8000C494FF496720023FDF7A0FE78607B6891
:1077E800002B05D1084809494FF487720DF0FCF8C1
:1077F8007B6818460837BD4680BD00BFE00D0020F5
:10780800B5790008B0D50308B8D50308C0D5030872
:1078180080B586B000AFF860B9607A603B60BB683D
:10782800002B02D100237B611CE02C2000F0FCFA25
:1078380078617B69002B15D000F092FA7B69FA68B1
:107848001A607B69BA689A617B697A68DA617B69D0
:107858003A681A627B693A6A5A627B690433184645
:10786800FDF7CAFDBB68002B05D1054805494FF453
:107878009B720DF0B9F87B6918461837BD4680BD74
:10788800DCD50308C0D5030880B588B000AFF86020
:10789800B9607A603B600023FB61FB68002B05D16F
:1078A8001F48204940F241120DF09EF81E4B1B68FC
:1078B800002B30D0BB683B617B687B61FB68BB6198
:1078C800BB68052B1CDCFFF711F80346022B0BD114
:1078D800154B1A6807F1100310461946BA6A0023B7
:1078E800FFF734FAF86116E00F4B1A6807F1100336
:1078F8001046194600220023FFF728FAF8610AE02B
:10790800094B1A6807F11003104619463A68002314
:10791800FFF726FBF861FB6918462037BD4680BD96
:10792800F8D50308C0D50308E00D002080B586B05F
:1079380002AF786039601A4B1B68DB68DB68FB6054
:10794800FB6804331846FDF7BFFDFB68DB69012BB4
:107958001ED1FB689A697B681344F86819463A682F
:107968007B6800F0C7F80346012B11D10023009370
:10797800F86800217A680023FFF786FFB860BB68C3
:10798800002B05D10748084940F293120DF02CF856
:10799800FB685B6AF86898471037BD4680BD00BF32
:1079A800D80D002000D60308C0D5030880B584B0E0
:1079B80000AF786007F10803184600F057F8F86040
:1079C800BB68F868194600F003F800F0D5F8F1E74D
:1079D80080B584B000AF78603960FEF739F907F1F7
:1079E8000803184600F066F8F860BB68002B31D130
:1079F8003B68002B0AD17A68FB689A4206D8FEF7E2
:107A080035F97868F968FFF791FF25E03B68002BA6
:107A180008D0134B1B681B68002B0CBF01230023E5
:107A2800DBB23B600F4B19687A68FB68D31A0846CB
:107A380019463A68FFF78AFEFEF718F90346002B45
:107A48000AD1094B4FF080521A60BFF34F8FBFF332
:107A58006F8F01E0FEF70AF91037BD4680BD00BF01
:107A6800DC0D0020E00D002004ED00E080B485B0BE
:107A780000AF78600E4B1B681B68002B0CBF0123FE
:107A88000023DBB21A467B681A607B681B68002BF0
:107A980005D1074B1B68DB681B68FB6001E000230E
:107AA800FB60FB6818461437BD465DF8047B7047D9
:107AB800D80D002080B584B000AF7860FEF76CF96F
:107AC800F8600B4B1B68FA689A4205D200F0E8F898
:107AD8007B6801221A6002E07B6800221A60044A6F
:107AE800FB681360FB6818461037BD4680BD00BFB1
:107AF800E40D002080B586B000AFF860B9607A6008
:107B08003B6000237B61FB68BA685A60FB68FA68CF
:107B18001A61BA687B689A4212D87A683B68D21AA6
:107B2800FB689B699A4202D301237B611BE0104BDF
:107B38001A68FB68043310461946FDF78DFC12E0FD
:107B48007A683B689A4206D2BA683B689A4202D37E
:107B580001237B6107E0074B1A68FB680433104672
:107B68001946FDF779FC7B6918461837BD4680BD74
:107B7800DC0D0020D80D002080B58AB002AF75E07A
:107B8800BB68002B72DB3B69FB61FB695B69002BFF
:107B980004D0FB6904331846FDF796FC3B1D1846D4
:107BA800FFF788FFB861BB68092B5ED801A252F8BD
:107BB80023F000BFE57B0008E57B0008E57B0008B3
:107BC800757C00083B7C00086B7C0008E57B00089E
:107BD800E57B0008757C00083B7C0008FA68FB69B7
:107BE8009B691A44FB68F8691146BA69FFF782FF76
:107BF8000346012B1CD1FB695B6AF8699847FB694E
:107C0800DB69012B14D1FA68FB699B691A440023CC
:107C18000093F86900210023FFF736FE78617B693D
:107C2800002B05D11A481B494FF428720CF0DCFED2
:107C38001CE0FA68FB699A61FB699B69002B05D116
:107C48001548144940F2B7220CF0CEFEFB699A6938
:107C5800BB691344F8691946BA69BB69FFF74AFF5B
:107C680004E0F86900F0A0F900E000BF0B4B1A68C7
:107C780007F108031046194600220023FFF774FA9B
:107C88000346002B7FF47CAF2037BD4680BD00BF84
:107C980000D60308C0D5030808D60308E00D002065
:107CA80080B588B002AF40E0294B1B68DB681B68D1
:107CB8007B61274B1B68DB68DB683B613B690433EE
:107CC8001846FDF701FC3B695B6A386998473B69D0
:107CD800DB69012B29D13B699A697B691344FB60F5
:107CE800FA687B699A420ED93B69FA685A603B691F
:107CF8003A691A61164B1A683B69043310461946EB
:107D0800FDF7AAFB11E000230093386900217A6986
:107D18000023FFF7B9FDB860BB68002B05D10D48FB
:107D28000D494FF43F720CF05FFE094B1B681B684E
:107D3800002BB9D1064B1B687B60084B1B68044AB3
:107D48001360064A7B6813601837BD4680BD00BFC4
:107D5800D80D002000D60308C0D50308DC0D00208C
:107D680080B500AF00F036FB174B1B68002B27D1FE
:107D78001648FDF721FB1648FDF71EFB154B134A65
:107D88001A60154B124A1A6014200C210022FEF7C3
:107D980043FF02460C4B1A600B4B1B68002B05D1A6
:107DA8000E480F4940F21A320CF01EFE064B1B68B3
:107DB800002B05D0044B1B6818460A49FFF79EFCA8
:107DC80000F034FB80BD00BFE00D0020B00D0020A6
:107DD800C40D0020D80D0020DC0D002030D603088B
:107DE800C0D503083CD6030880B584B000AF7860DE
:107DF8007B68FB607B68002B05D1094809494FF473
:107E080053720CF0F1FD00F0E5FAFB681B6ABB60E9
:107E180000F00CFBBB6818461037BD4680BD00BF9C
:107E2800F8D50308C0D5030880B586B000AF7860E0
:107E38000023FB60FDF70CFF524B1B68002B01D1A0
:107E480000F014F9504B1A687B681340002B40F07F
:107E580082807B68002B17D008227B6813447B60E4
:107E68007B6803F00703002B0ED07B6823F0070321
:107E780008337B607B6803F00703002B04D043487A
:107E88004349BB220CF0B0FD7B68002B63D0414B0B
:107E98001B687A689A425ED83F4B3B613E4B1B6831
:107EA8007B6104E07B693B617B691B687B617B6963
:107EB8005A687B689A4203D27B691B68002BF1D110
:107EC800304B1B687A699A4245D03B691B68082287
:107ED8001344FB607B691A683B691A607B695A68BE
:107EE8007B68D21A08235B009A4219D97A697B68A1
:107EF8001344BB60BB6803F00703002B04D027487A
:107F08002349E8220CF070FD7B695A687B68D21A15
:107F1800BB685A607B697A685A60B86800F008F9EB
:107F28001C4B1A687B695B68D31A1A4A1360194B91
:107F38001A681B4B1B689A4203D2164B1B68184AD7
:107F480013607B695A68104B1B681A437B695A6037
:107F58007B6900221A60FDF789FEFB68002B01D1BE
:107F680004F03AF9FB6803F00703002B05D00D482D
:107F780007494FF494720CF037FDFB681846183720
:107F8800BD4680BD30AA00203CAA002044D6030884
:107F980074D6030834AA002028AA0020A0D6030813
:107FA80038AA0020E4D6030880B584B000AF786012
:107FB8007B68FB607B68002B3ED008235B42FA6835
:107FC8001344FB60FB68BB60BB685A681C4B1B68AA
:107FD8001340002B05D11B481B494FF49E720CF02F
:107FE80003FDBB681B68002B05D01848164940F2F2
:107FF8003D120CF0F9FCBB685A68114B1B68134022
:10800800002B19D0BB681B68002B15D1BB685A68B8
:108018000B4B1B68DB431A40BB685A60FDF718FE20
:10802800BB685A680A4B1B681344094A1360B8684E
:1080380000F07EF8FDF71AFE1037BD4680BD00BF80
:108048003CAA002024D7030874D6030858D703088D
:1080580034AA002080B400AF034B1B681846BD4605
:108068005DF8047B704700BF34AA002080B485B057
:1080780000AF49F64043BB60274BFB60FB6803F049
:108088000703002B0CD0FB680733FB60FB6823F069
:108098000703FB60BA68FB68D31A1F4A1344BB6026
:1080A800FB687B601D4A7B6813601C4B00225A608A
:1080B8007A68BB681344FB600822FB689B1AFB6064
:1080C800FB6823F00703FB60FB68154A1360144B39
:1080D8001B6800225A60124B1B6800221A607B68DA
:1080E8003B603B68FA68D21A3B685A600C4B1A68C6
:1080F8003B681A603B685B680A4A13603B685B68C8
:10810800094A1360094B4FF000421A601437BD4604
:108118005DF8047B704700BFE80D002028AA002006
:1081280030AA002038AA002034AA00203CAA002047
:1081380080B485B000AF7860274BFB6002E0FB6835
:108148001B68FB60FB681A687B689A42F7D3FB6878
:10815800BB60FB685B68BA681A447B689A4208D1BE
:10816800FB685A687B685B681A44FB685A60FB685E
:108178007B607B68BB607B685B68BA681A44FB6895
:108188001B689A4218D1FB681A68144B1B689A42FC
:108198000DD07B685A68FB681B685B681A447B686B
:1081A8005A60FB681B681A687B681A6008E00B4B0A
:1081B8001A687B681A6003E0FB681A687B681A60B3
:1081C800FA687B689A4202D0FB687A681A601437AA
:1081D800BD465DF8047B704728AA002030AA00201D
:1081E80080B485B000AFF860B9607A60FB68043B82
:1081F800FB60FB684FF080721A60FB68043BFB6011
:10820800BA68FB681A60FB68043BFB600C4AFB68B1
:108218001A60FB68143BFB607A68FB681A60FB68AD
:10822800043BFB60FB686FF002021A60FB68203BAE
:10823800FB60FB6818461437BD465DF8047B704741
:108248004D82000880B582B000AF0A4B1B68B3F1BD
:10825800FF3F05D00848094940F207120CF0C4FB5B
:108268004FF05F0383F31188BFF36F8FBFF34F8F16
:108278007B60FEE70000002078D7030894D7030846
:10828800064B19680868B0E8F04F80F30988BFF317
:108298006F8F4FF0000080F311887047900C00201A
:1082A80006480068006880F3088862B661B6BFF3C4
:1082B8004F8FBFF36F8F00DF00BF000008ED00E0B5
:1082C80080B584B000AF374B1B68374A934205D15D
:1082D8003648374940F23D120CF086FB314B1B689B
:1082E800344A934205D1344831494FF49F720CF017
:1082F8007BFB324BFB60FB681B78DBB2BB60FB6827
:10830800FF221A70FB681B78DBB2FB71FB79DBB2CA
:1083180003F05F03DAB22A4B1A702A4B07221A605D
:1083280009E0284B1B68013B264A1360FB79DBB246
:108338005B00DBB2FB71FB79DBB2DBB25BB2002B1B
:10834800EFDB204B1B681B021E4A13601D4B1B688A
:1083580003F4E0631B4A1360BB68DAB2FB681A7067
:10836800194A194B1B6843F47F031360164A164BCE
:108378001B6843F07F43136000F0CEF8134B0022D4
:108388001A6000F0DBF8124A114B1B6843F04043B7
:108398001360FFF785FFFFF755FF002318461037D6
:1083A800BD4680BD00ED00E071C20F41C4D703088F
:1083B80094D7030870C20F41E8D7030800E400E02F
:1083C80040AA002044AA002020ED00E00000002080
:1083D80034EF00E080B582B000AF4FF05F0383F365
:1083E8001188BFF36F8FBFF34F8F7B600B4B1B68F8
:1083F80001330A4A1360094B1B68012B0AD1084B49
:108408001B68DBB2002B05D00648074940F29F12D3
:108418000CF0EAFA0837BD4680BD00BF0000002016
:1084280004ED00E028D8030894D7030880B582B08B
:1084380000AF0D4B1B68002B05D10C480C494FF4BD
:10844800D3720CF0D1FA084B1B68013B064A136043
:10845800054B1B68002B04D100237B607B6883F3EA
:1084680011880837BD4680BD0000002060D8030889
:1084780094D70308EFF30980BFF36F8F144B1A6882
:108488001EF0100F08BF20ED108A20E9F04F106091
:108498004DF8043D4FF05F0080F31188BFF34F8F14
:1084A800BFF36F8FFDF7E8FD4FF0000080F31188F0
:1084B80008BC19680868B0E8F04F1EF0100F08BF34
:1084C800B0EC108A80F30988BFF36F8F704700BF44
:1084D800900C002080B584B000AFEFF311824FF00C
:1084E8005F0383F31188BFF36F8FBFF34F8FFA6079
:1084F800BB60FDF7E1FC0346002B03D0054B4FF0B2
:1085080080521A6000237B607B6883F311881037E0
:10851800BD4680BD04ED00E080B400AF044B054AC1
:108528001A60054B07221A60BD465DF8047B704748
:1085380014E000E03F90020010E000E0DFF80C00DB
:10854800016841F4700101607047000088ED00E0A7
:1085580080B582B000AFEFF305837B607B680F2B9B
:108568000FD9104A7B6813441B78FB700E4B1B789D
:10857800FA789A4205D20D480D494FF438720CF03A
:1085880033FA0C4B1B6803F4E0620B4B1B689A42EE
:1085980005D90A4806494FF43C720CF025FA083709
:1085A800BD4680BDF0E300E040AA002074D803086F
:1085B80094D703080CED00E044AA0020A0D80308D3
:1085C80080B500AF4FF48070012101F0EBF94FF452
:1085D8008070002101F0E6F980BD00BF80B485B04D
:1085E80000AF786039600023FB600023FB727B6872
:1085F8005B68FB60FB6823F0407323F48073FB60C7
:108608003B681B791A023B681B681343FA681343DB
:10861800FB607B68FA685A607B689B68FB60FA6855
:10862800174B1340FB603B681A693B68DB681A43C9
:108638003B689B681A433B685B795B001343FA68A5
:108648001343FB607B68FA689A607B68DB6AFB60AF
:10865800FB6823F47003FB603B681B7D013BDAB2C7
:10866800FB7A1343FB72FB7A1B05FA681343FB6022
:108678007B68FA68DA621437BD465DF8047B704798
:10868800FDF7FFC080B483B000AF78607B6800223C
:108698001A607B6800221A717B6800225A717B6815
:1086A80000229A607B680022DA607B6800221A61E7
:1086B8007B6801221A750C37BD465DF8047B70474C
:1086C80080B485B000AF78600023FB600E4B5B6818
:1086D800FB60FA680D4B1340FB607B681A687B6887
:1086E8005B681A437B689B681A437B68DB681343A3
:1086F800FA681343FB60044AFB6853601437BD46AD
:108708005DF8047B704700BF00230140E030FCFFA8
:1087180080B483B000AF78607B6800221A607B6801
:1087280000225A607B6800229A607B680022DA6027
:108738000C37BD465DF8047B704700BF80B483B03A
:1087480000AF78600B46FB70FB78002B06D07B6887
:108758009B6843F001027B689A6005E07B689B6830
:1087680023F001027B689A600C37BD465DF8047BF4
:10877800704700BF80B485B000AF786008461146E6
:108788001A460346FB700B46BB7013467B700023EA
:10879800FB600023BB60FB78092B23D97B68DB686F
:1087A800FB60FB78A3F10A0213465B00134407221F
:1087B80002FA03F3BB60BB68DB43FA681340FB6053
:1087C8007978FB78A3F10A0213465B00134401FA97
:1087D80003F3BB60FA68BB681343FB607B68FA6805
:1087E800DA601EE07B681B69FB60FA7813465B0061
:1087F8001344072202FA03F3BB60BB68DB43FA6841
:108808001340FB607978FA7813465B00134401FA49
:1088180003F3BB60FA68BB681343FB607B68FA68C4
:108828001A61BB78062B21D87B685B6BFB60BB7831
:108838005A1E13469B0013441F2202FA03F3BB601F
:10884800BB68DB43FA681340FB60F978BB785A1EB3
:1088580013469B00134401FA03F3BB60FA68BB6834
:108868001343FB607B68FA685A6347E0BB780C2BBC
:1088780021D87B681B6BFB60BB78DA1F13469B0013
:1088880013441F2202FA03F3BB60BB68DB43FA6898
:108898001340FB60F978BB78DA1F13469B0013443A
:1088A80001FA03F3BB60FA68BB681343FB607B689B
:1088B800FA681A6322E07B68DB6AFB60BB78A3F185
:1088C8000D0213469B0013441F2202FA03F3BB60F8
:1088D800BB68DB43FA681340FB60F978BB78A3F107
:1088E8000D0213469B00134401FA03F3BB60FA68B8
:1088F800BB681343FB607B68FA68DA621437BD46CD
:108908005DF8047B704700BF80B483B000AF786027
:108918007B689B6843F080427B689A600C37BD4651
:108928005DF8047B704700BF80B483B000AF786007
:108938007B68DB6C9BB218460C37BD465DF8047B40
:10894800704700BF80B485B000AF78600B46FB70FD
:108958000023FB737B681A68FB781340002B02D056
:108968000123FB7301E00023FB73FB7B18461437DC
:10897800BD465DF8047B704780B483B000AF786073
:108988000B46FB70FB78002B06D00949084B5A6848
:108998007B6813434B6006E00549054B5A687B68C2
:1089A800DB4313404B600C37BD465DF8047B7047D2
:1089B800002004E080B483B000AF78600B46FB7001
:1089C800FB78002B06D00949084BDA687B6813430B
:1089D800CB6006E00549054BDA687B68DB4313404A
:1089E800CB600C37BD465DF8047B7047002004E07F
:1089F80080B483B000AF78607B681B6823F0010205
:108A08007B681A607B6800221A607B6800225A60C3
:108A18007B6800229A607B680022DA607B6800220B
:108A28001A617B6821225A617B68454A934203D1C7
:108A3800444B3D229A607EE07B68434A934204D1CE
:108A4800404B4FF474629A6075E07B683F4A9342EA
:108A580004D13C4B4FF474129A606CE07B683C4A3A
:108A6800934204D1374B4FF074629A6063E07B689D
:108A7800384A934203D1334B374ADA605BE07B686C
:108A8800364A934203D12F4B354ADA6053E07B686C
:108A9800344A934203D12B4B334ADA604BE07B686C
:108AA800324A934204D1274B4FF03D52DA6042E0FC
:108AB8007B682F4A934203D12E4B3D229A603AE0BD
:108AC8007B682D4A934204D12A4B4FF474629A6012
:108AD80031E07B68294A934204D1264B4FF4741243
:108AE8009A6028E07B68264A934204D1214B4FF0D4
:108AF80074629A601FE07B68224A934203D11D4B3F
:108B0800154ADA6017E07B681F4A934203D1194B74
:108B1800134ADA600FE07B681C4A934203D1154B75
:108B2800114ADA6007E07B68194A934203D1114B76
:108B38004FF03D52DA600C37BD465DF8047B704754
:108B4800106002400060024028600240406002401D
:108B580058600240706002403D000020886002407A
:108B6800400F0020A060024000003D20B860024095
:108B780010640240006402402864024040640240DD
:108B8800586402407064024088640240A064024055
:108B9800B864024080B485B000AF786039600023C3
:108BA800FB607B681B68FB60FA68244B1340FB6022
:108BB8003B681A683B68DB681A433B685B691A4381
:108BC8003B689B691A433B68DB691A433B681B6A2D
:108BD8001A433B685B6A1A433B689B6A1A433B68C3
:108BE8005B6B1A433B689B6B1343FA681343FB6048
:108BF8007B68FA681A607B685B69FB60FB6823F036
:108C08000703FB603B68DA6A3B681B6B1343FA682F
:108C18001343FB607B68FA685A613B681A697B6892
:108C28005A603B685A687B689A603B689A687B68B8
:108C3800DA601437BD465DF8047B70473F801CF04E
:108C480080B483B000AF78600B46FB70FB78002BD4
:108C580006D07B681B6843F001027B681A6005E058
:108C68007B681B6823F001027B681A600C37BD46DD
:108C78005DF8047B704700BF80B483B000AF7860B4
:108C88000B467B807A887B685A600C37BD465DF856
:108C9800047B704780B483B000AF78607B685B6802
:108CA8009BB218460C37BD465DF8047B704700BF81
:108CB80080B485B000AF78600023FB737B681B68C5
:108CC80003F00103002B02D00123FB7301E0002312
:108CD800FB73FB7B18461437BD465DF8047B704771
:108CE80080B487B000AF786039600023FB7500233B
:108CF800FB607B68154A934202D8154B3B6101E043
:108D0800144B3B613B6803F00053002B03D03B69D5
:108D18005B68FB6002E03B691B68FB60FB6823F053
:108D2800F02323F08213FB60FA683B681340002BA2
:108D380002D00123FB7501E00023FB75FB7D18467B
:108D48001C37BD465DF8047B704700BF0F640240C6
:108D5800006002400064024080B485B000AF7860D3
:108D680039607B68104A934202D8104BFB6001E0DF
:108D78000F4BFB603B6803F00053002B07D03B68A8
:108D880023F0F02323F08213FA68D36006E03B68EF
:108D980023F0F02323F08213FA6893601437BD465A
:108DA8005DF8047B704700BF0F640240006002401A
:108DB8000064024080B485B000AFF860B960134623
:108DC800FB71BB6803F08003002B0FD0FB79002BED
:108DD80006D0FB685B6943F08002FB685A6105E0D6
:108DE800FB685B6923F08002FB685A61BB68802BD3
:108DF80014D0FB79002B08D0FB681A68BB6803F015
:108E08001E031A43FB681A6008E0FB681A68BB680F
:108E180003F01E03DB431A40FB681A601437BD4693
:108E28005DF8047B704700BF80B487B000AF7860FE
:108E380039600023FB750023FB600023BB607B685F
:108E4800224A934202D8224B3B6101E0214B3B610D
:108E58003B6823F0F02323F0C313002B0AD03B68B0
:108E6800DB0A03F01E03FB607B681A68FB6813408B
:108E7800BB6004E07B685B6903F08003BB603B6810
:108E880003F00053002B03D03B695B68FB6002E0F2
:108E98003B691B68FB60FB6823F0F02323F0821317
:108EA800FB60FA683B681340002B05D0BB68002BB9
:108EB80002D00123FB7501E00023FB75FB7D1846FA
:108EC8001C37BD465DF8047B704700BF0F64024045
:108ED800006002400064024080B485B000AF786052
:108EE80039607B68104A934202D8104BFB6001E05E
:108EF8000F4BFB603B6803F00053002B07D03B6827
:108F080023F0F02323F08213FA68D36006E03B686D
:108F180023F0F02323F08213FA6893601437BD46D8
:108F28005DF8047B704700BF0F6402400060024098
:108F38000064024080B485B000AF78600023FB6015
:108F4800344BFB607B689B79002B4FD03149314B08
:108F58001A687B681B68DB4313400B602D492D4B57
:108F68005A687B681B68DB4313404B607B681B793E
:108F78001A46FB681344FB60FB68FA6811687A6854
:108F880012680A431A602349224B9A687B681B6857
:108F9800DB4313408B601F491E4BDA687B681B68F4
:108FA800DB431340CB607B685B79102B0ED11949EA
:108FB800184B9A687B681B6813438B601549154BDF
:108FC800DA687B681B681343CB601DE0114BFB60BC
:108FD8007B685B791A46FB681344FB60FB68FA6898
:108FE80011687A6812680A431A600DE07B681B7979
:108FF8001A46FB681344FB60FB68FA6811687A68D4
:109008001268D2430A401A601437BD465DF8047BE3
:10901800704700BF003C014080B483B000AF786067
:10902800034A7B6853610C37BD465DF8047B704783
:10903800003C014080B485B000AF78600023FB732A
:10904800084B5A697B681340002B02D00123FB733D
:1090580001E00023FB73FB7B18461437BD465DF81F
:10906800047B7047003C014080B483B000AF786057
:10907800034A7B6853610C37BD465DF8047B704733
:10908800003C014080B487B000AF786039600023AD
:109098007B6100233B610023FB6000237B6176E05A
:1090A8007B69012202FA03F33B613B681A683B695A
:1090B8001340FB60FA683B699A4265D17B681A687D
:1090C8007B695B00194603238B40DB431A407B68AE
:1090D8001A607B681A683B681B7919467B695B00D4
:1090E80001FA03F31A437B681A603B681B79012B6A
:1090F80003D03B681B79022B2ED17B689A687B6969
:109108005B00194603238B40DB431A407B689A6057
:109118007B689A683B685B7919467B695B0001FA52
:1091280003F31A437B689A607B685A687B699BB231
:10913800194601238B40DB431A407B685A607B68E1
:109148005B683A68927911467A6992B201FA02F23A
:1091580092B21A437B685A607B68DA687B699BB273
:109168005B00032101FA03F3DB431A407B68DA60F2
:109178007B68DA683B68DB7919467B695B0001FA32
:1091880003F31A437B68DA607B6901337B617B698F
:109198000F2B85D91C37BD465DF8047B704700BF8F
:1091A80080B483B000AF78607B684FF6FF721A60B6
:1091B8007B6800221A717B6800225A717B68002242
:1091C8009A717B680022DA710C37BD465DF8047B22
:1091D800704700BF80B485B000AF78600B467B80D5
:1091E8000023FB737B681A697B881340002B02D02D
:1091F8000123FB7301E00023FB73FB7B1846143744
:10920800BD465DF8047B704780B483B000AF7860DA
:109218000B467B807B687A881A830C37BD465DF8DD
:10922800047B704780B483B000AF78600B467B80C6
:109238007B687A885A830C37BD465DF8047B704793
:1092480080B483B000AF78600B467B8013467B7098
:109258007B78002B03D07B687A881A8302E07B68CE
:109268007A885A830C37BD465DF8047B704700BF87
:1092780080B485B000AF78600B467B8013467B7066
:109288000023FB600023BB607B787A8802F007022A
:1092980092009340FB607B88DB089BB218467B8872
:1092A800DB089BB21A467B68083253F822207B8879
:1092B80003F007039B0019460F238B40DB4302EAA8
:1092C80003017B6800F1080243F822107B88DB0861
:1092D8009BB21A467B68083253F82220FB68134376
:1092E800BB607B88DB089BB21A467B680832B9688A
:1092F80043F822101437BD465DF8047B704700BF61
:1093080080B582B000AF78607B68174A93420AD173
:109318004FF40010012100F027FB4FF4001000214A
:1093280000F022FB1CE07B68104A93420AD14FF4FC
:109338008000012100F018FB4FF48000002100F0AC
:1093480013FB0DE07B680A4A934209D14FF40000F1
:10935800012100F009FB4FF40000002100F004FB9C
:109368000837BD4680BD00BF00540040005800408B
:10937800005C004080B58AB000AF78603960002397
:10938800FB8400237B840423BB84574BFB617B68ED
:109398009B88FB84FB8C23F03F03FB8407F10C03C1
:1093A800184600F0BFF97B69FB61FB694F4AA2FBD5
:1093B80003239B0C7B84FA8C7B8C1343FB847B6894
:1093C800FA8C9A807B681B889BB223F001039AB2BF
:1093D8007B681A800023FB843B681B68444A9342DD
:1093E80015D83B681B685B00FA69B2FBF3F3BB84D2
:1093F800BB8C032B01D80423BB84FA8CBB8C13438E
:10940800FB847B8C01339AB27B681A8440E03B680A
:10941800DB884BF6FF72934209D13B681A68134602
:109428005B001344FA69B2FBF3F3BB840EE03B68BC
:109438001A6813469B0013449A001344FA69B2FB56
:10944800F3F3BB84BB8C43F48043BB84BB8CC3F372
:109458000B03002B03D1BB8C43F00103BB84BA8CF4
:10946800FB8C13439BB26FEA43436FEA5343FB847D
:109478007B8C4FF4967202FB03F31E4A82FB0312A5
:109488009211DB17D31A9BB201339AB27B681A8404
:109498007B68FA8C9A837B681B889BB243F0010334
:1094A8009AB27B681A807B681B88FB84FB8C23F448
:1094B800816323F00203FB843B689A883B685B89DD
:1094C80013439AB2FB8C1343FB847B68FA8C1A8093
:1094D8003B689A893B681B8913439AB27B681A8157
:1094E8002837BD4680BD00BF00127A0083DE1B43CB
:1094F800A0860100D34D621080B483B000AF7860BD
:109508000B46FB701346BB70BB78002B04D0FB786E
:1095180043F00103FB7003E0FB7823F00103FB70C9
:10952800FB789AB27B681A820C37BD465DF8047BDB
:10953800704700BF80B483B000AF78600B46FB7003
:10954800FB78002B08D07B681B889BB243F48063B0
:109558009AB27B681A8007E07B681B889BB223F469
:1095680080639AB27B681A800C37BD465DF8047B2D
:10957800704700BF80B483B000AF78600B46FB70C3
:10958800FB789AB27B681A820C37BD465DF8047B7B
:10959800704700BF80B483B000AF78607B681B8AD7
:1095A8009BB2DBB218460C37BD465DF8047B7047AA
:1095B80080B483B000AF78600B46FB70FB78002B5B
:1095C80008D07B689B889BB243F400639AB27B689F
:1095D8009A8007E07B689B889BB223F400639AB269
:1095E8007B689A800C37BD465DF8047B704700BFE6
:1095F80080B483B000AF78600B46FB70FB78002B1B
:1096080008D07B689B889BB243F480539AB27B68EE
:109618009A8007E07B689B889BB223F480539AB2B8
:109628007B689A800C37BD465DF8047B704700BFA5
:1096380080B483B000AF78600B467B8013467B70A4
:109648007B78002B08D07B689B889AB27B88134371
:109658009AB27B689A8009E07B689B889AB27B887B
:10966800DB439BB213409AB27B689A800C37BD46A5
:109678005DF8047B704700BF80B487B000AF7860A6
:1096880039600023FB7500233B610023FB607B6886
:10969800FB603B681B0F3B613B6823F07F433B60EB
:1096A8003B69002B03D0FB681433FB6005E03B6883
:1096B8001B0C3B60FB681833FB60FB681A683B684F
:1096C8001340002B02D00123FB7501E00023FB753A
:1096D800FB7D18461C37BD465DF8047B704700BF0C
:1096E80080B485B000AF786039600023FB603B68C8
:1096F80023F07F43FB60FB689BB2DB439AB27B6835
:109708009A821437BD465DF8047B704780B400AF79
:10971800034B4AF6AA221A60BD465DF8047B7047DF
:109728000030004080B489B000AF78600023BB618E
:1097380000237B610023FB6102233B610023FB6064
:109748000223BB60484B9B6803F00C03BB61BB69F9
:10975800042B07D0082B09D0002B3FD17B68434A44
:109768001A603FE07B68424A1A603BE03E4B5B6808
:1097780003F480039B0DFB603B4B5B6803F03F03E6
:10978800BB60FB68002B0DD0394ABB68B2FBF3F213
:10979800354B596847F6C0730B409B0903FB02F32E
:1097A800FB610CE0314ABB68B2FBF3F22E4B5968FF
:1097B80047F6C0730B409B0903FB02F3FB612A4B7E
:1097C8005B6803F440331B0C01335B003B61FA69AF
:1097D8003B69B2FBF3F27B681A6003E07B68234ABB
:1097E8001A6000BF204B9B6803F0F003BB61BB69A4
:1097F8001B09BB611F4ABB6913441B78DBB27B6141
:109808007B681A687B69DA407B685A60164B9B68EC
:1098180003F4E053BB61BB699B0ABB61154ABB6992
:1098280013441B78DBB27B617B685A687B69DA403A
:109838007B689A600C4B9B6803F46043BB61BB690F
:109848005B0BBB610B4ABB6913441B78DBB27B61C2
:109858007B685A687B69DA407B68DA602437BD46E2
:109868005DF8047B704700BF003802400024F40014
:1098780000127A000400002080B483B000AF786042
:109888000B46FB70FB78002B06D00949084B1A6B76
:109898007B6813430B6306E00549054B1A6B7B682D
:1098A800DB4313400B630C37BD465DF8047B704700
:1098B8000038024080B483B000AF78600B46FB707C
:1098C800FB78002B06D00949084B5A6B7B68134379
:1098D8004B6306E00549054B5A6B7B68DB43134035
:1098E8004B630C37BD465DF8047B70470038024077
:1098F80080B483B000AF78600B46FB70FB78002B18
:1099080006D00949084B1A6C7B6813430B6406E0C0
:109918000549054B1A6C7B68DB4313400B640C3715
:10992800BD465DF8047B70470038024080B483B0C0
:1099380000AF78600B46FB70FB78002B06D0094916
:10994800084B5A6C7B6813434B6406E00549054B8A
:109958005A6C7B68DB4313404B640C37BD465DF89B
:10996800047B70470038024080B483B000AF786051
:109978000B46FB70FB78002B06D00949084B1A6A86
:109988007B6813430B6206E00549054B1A6A7B683E
:10999800DB4313400B620C37BD465DF8047B704710
:1099A8000038024080B483B000AF78600B46FB708B
:1099B800FB78002B06D00949084B5A6A7B68134389
:1099C8004B6206E00549054B5A6A7B68DB43134046
:1099D8004B620C37BD465DF8047B70470038024087
:1099E80080B487B000AF0346FB710023FB600023FF
:1099F8007B610023FB74FB795B09DBB2FB60FB68CE
:109A0800012B03D1124B1B687B6109E0FB68022B19
:109A180003D10F4B1B6F7B6102E00D4B5B6F7B61CA
:109A2800FB7903F01F03FB60FB687A6922FA03F3F2
:109A380003F00103002B02D00123FB7401E0002393
:109A4800FB74FB7C18461C37BD465DF8047B7047E9
:109A58000038024080B400AF044A044B5B6F43F007
:109A680080735367BD465DF8047B70470038024039
:109A780080B582B000AF78607B682D4A93420AD1E6
:109A88004FF480500121FFF78DFF4FF480500021E3
:109A9800FFF788FF49E07B68264A93420AD14FF4D2
:109AA80080400121FFF760FF4FF480400021FFF75D
:109AB8005BFF3AE07B68204A93420AD14FF40040AA
:109AC8000121FFF751FF4FF400400021FFF74CFF41
