:020000040800F2
:10400000FFFF012075E50008998700089B870008DD
:10401000F5880008398900087D8900080000000043
:10402000000000000000000000000000A571000872
:10403000C189000800000000397200089587000857
:10404000B9E50008B9E50008B9E50008B9E50008D8
:10405000B9E50008B9E500082B8600083B86000892
:104060004B8600085B86000869860008B9330108A2
:10407000B9E50008DD330108B9E50008B9E5000835
:10408000C3890008B9E50008B9E50008B9E50008EA
:10409000B9E50008B9E50008B9E50008818600081F
:1040A000B9E50008B9E50008B9E50008B9E5000878
:1040B000B9E50008B9E50008B9E50008AD33010825
:1040C000A1330108B9E50008B9E50008B9E5000821
:1040D000B9E50008B9E50008B9E50008B13E0108F6
:1040E000F9860008B9E50008B9E50008B9E5000857
:1040F000B9E500088D400108B9E50008B9E50008F8
:10410000B9E50008B9E50008B9E50008B9E5000817
:10411000B9E50008B9E50008B9E50008B16601088D
:10412000B1D50108B9E50008B9E50008B9E500080E
:10413000B9E50008B9E50008B9E50008B9E50008E7
:10414000B9E50008B9E50008B9E50008E9F200089A
:1041500045D50108B9E500086D3D0108693D010834
:10416000D1330108C5330108B9E50008B9E50008F5
:10417000B9E50008B9E50008B9E50008B9E50008A7
:08418000B9E50008B9E50008EB
:10418800D0400B1CD1409C46203AD34018435242A1
:1041980063469340184370479140031C90409C46E7
:1041A800203A9340194352426346D340194370471B
:1041B80081F0004102E000BF83F0004330B54FEAD0
:1041C80041044FEA430594EA050F08BF90EA020F3D
:1041D8001FBF54EA000C55EA020C7FEA645C7FEAD0
:1041E800655C00F0E2804FEA5454D4EB5555B8BFF3
:1041F8006D420CDD2C4480EA020281EA030382EA64
:10420800000083EA010180EA020281EA0303362DF5
:1042180088BF30BD11F0004F4FEA01314FF4801CC8
:104228004CEA113102D0404261EB410113F0004FDA
:104238004FEA03334CEA133302D0524263EB430391
:1042480094EA050F00F0A780A4F10104D5F1200E2F
:104258000DDB02FA0EFC22FA05F2801841F100018A
:1042680003FA0EF2801843FA05F359410EE0A5F15E
:1042780020050EF1200E012A03FA0EFC28BF4CF08F
:10428800020C43FA05F3C01851EBE37101F0004545
:1042980007D54FF0000EDCF1000C7EEB00006EEB52
:1042A8000101B1F5801F1BD3B1F5001F0CD34908DC
:1042B8005FEA30004FEA3C0C04F101044FEA445233
:1042C80012F5800F80F09A80BCF1004F08BF5FEABA
:1042D800500C50F1000041EB045141EA050130BD9A
:1042E8005FEA4C0C404141EB010111F4801FA4F13D
:1042F8000104E9D191F0000F04BF01460020B1FA92
:1043080081F308BF2033A3F10B03B3F120020CDAC9
:104318000C3208DD02F1140CC2F10C0201FA0CF0A7
:1043280021FA02F10CE002F11402D8BFC2F1200C0C
:1043380001FA02F120FA0CFCDCBF41EA0C019040C2
:10434800E41AA2BF01EB0451294330BD6FEA04040B
:104358001F3C1CDA0C340EDC04F11404C4F12002F6
:1043680020FA04F001FA02F340EA030021FA04F308
:1043780045EA030130BDC4F10C04C4F1200220FA5F
:1043880002F001FA04F340EA0300294630BD21FA9D
:1043980004F0294630BD94F0000F83F4801306BF63
:1043A80081F480110134013D4EE77FEA645C18BF57
:1043B8007FEA655C29D094EA050F08BF90EA020FEE
:1043C80005D054EA000C04BF1946104630BD91EAE6
:1043D800030F1EBF0021002030BD5FEA545C05D1E9
:1043E8004000494128BF41F0004130BD14F5800428
:1043F8003CBF01F5801130BD01F0004545F0FE419C
:1044080041F470014FF0000030BD7FEA645C1ABFD0
:10441800194610467FEA655C1CBF0B46024650EA07
:10442800013406BF52EA033591EA030F41F4002133
:1044380030BD00BF90F0000F04BF0021704730B5B9
:104448004FF4806404F132044FF000054FF000018E
:1044580050E700BF90F0000F04BF0021704730B54F
:104468004FF4806404F1320410F0004548BF404224
:104478004FF000013EE700BF42004FEAE2014FEA79
:1044880031014FEA02701FBF12F07F4393F07F4F54
:1044980081F06051704792F0000F14BF93F07F4F86
:1044A800704730B54FF4607401F0004521F00041C9
:1044B80020E700BF50EA010208BF704730B54FF04F
:1044C80000050AE050EA010208BF704730B511F054
:1044D800004502D5404261EB41014FF4806404F18C
:1044E80032045FEA915C3FF4DCAE4FF003025FEA0E
:1044F800DC0C18BF03325FEADC0C18BF033202EB96
:10450800DC02C2F1200300FA03FC20FA02F001FAEF
:1045180003FE40EA0E0021FA02F11444C1E600BF8E
:1045280070B54FF0FF0C4CF4E06C1CEA11541DBF41
:104538001CEA135594EA0C0F95EA0C0F00F0DEF80C
:104548002C4481EA030621EA4C5123EA4C5350EAF1
:10455800013518BF52EA033541F4801143F4801342
:1045680038D0A0FB02CE4FF00005E1FB02E506F0D3
:104578000042E0FB03E54FF00006E1FB03569CF028
:10458800000F18BF4EF0010EA4F1FF04B6F5007F2E
:1045980064F5407404D25FEA4E0E6D4146EB0606A0
:1045A80042EAC62141EA55514FEAC52040EA5E5029
:1045B8004FEACE2EB4F1FD0C88BFBCF5E06F1ED8D3
:1045C800BEF1004F08BF5FEA500E50F1000041EB0A
:1045D800045170BD06F0004646EA010140EA0200B7
:1045E80081EA0301B4EB5C04C2BFD4EB0C0541EAD9
:1045F800045170BD41F480114FF0000E013C00F3EE
:10460800AB8014F1360FDEBF002001F0004170BD11
:10461800C4F10004203C35DA0C341BDC04F114042A
:10462800C4F1200500FA05F320FA04F001FA05F2B6
:1046380040EA020001F0004221F0004110EBD37083
:1046480021FA04F642EB06015EEA430E08BF20EAAF
:10465800D37070BDC4F10C04C4F1200500FA04F352
:1046680020FA05F001FA04F240EA020001F00041E4
:1046780010EBD37041F100015EEA430E08BF20EA57
:10468800D37070BDC4F1200500FA05F24EEA020E9F
:1046980020FA04F301FA05F243EA020321FA04F0CE
:1046A80001F0004121FA04F220EA020000EBD37085
:1046B8005EEA430E08BF20EAD37070BD94F0000F85
:1046C8000FD101F00046400041EB010111F4801FB9
:1046D80008BF013CF7D041EA060195F0000F18BF6A
:1046E800704703F00046520043EB030313F4801FA6
:1046F80008BF013DF7D043EA0603704794EA0C0F60
:104708000CEA135518BF95EA0C0F0CD050EA410675
:1047180018BF52EA4306D1D181EA030101F00041F2
:104728004FF0000070BD50EA410606BF104619461A
:1047380052EA430619D094EA0C0F02D150EA013626
:1047480013D195EA0C0F05D152EA03361CBF104667
:1047580019460AD181EA030101F0004141F0FE4106
:1047680041F470014FF0000070BD41F0FE4141F48A
:10477800780170BD70B54FF0FF0C4CF4E06C1CEA8A
:1047880011541DBF1CEA135594EA0C0F95EA0C0F3F
:1047980000F0A7F8A4EB050481EA030E52EA0335FA
:1047A8004FEA013100F088804FEA03334FF080551B
:1047B80045EA131343EA12634FEA022245EA111548
:1047C80045EA10654FEA00260EF000419D4208BFF9
:1047D800964244F1FD0404F5407402D25B084FEAA6
:1047E8003202B61A65EB03055B084FEA32024FF452
:1047F80080104FF4002CB6EB020E75EB030E22BFAF
:10480800B61A754640EA0C005B084FEA3202B6EB6E
:10481800020E75EB030E22BFB61A754640EA5C001D
:104828005B084FEA3202B6EB020E75EB030E22BFAD
:10483800B61A754640EA9C005B084FEA3202B6EBAE
:10484800020E75EB030E22BFB61A754640EADC006D
:1048580055EA060E18D04FEA051545EA16754FEACF
:1048680006164FEAC30343EA52734FEAC2025FEAED
:104878001C1CC0D111F4801F0BD141EA00014FF07C
:1048880000004FF0004CB6E711F4801F04BF01434D
:104898000020B4F1FD0C88BFBCF5E06F3FF6AFAE69
:1048A800B5EB030C04BFB6EB020C5FEA500C50F1F9
:1048B800000041EB045170BD0EF0004E4EEA11317C
:1048C80014EB5C04C2BFD4EB0C0541EA045170BD83
:1048D80041F480114FF0000E013C90E645EA060EC7
:1048E8008DE60CEA135594EA0C0F08BF95EA0C0FF5
:1048F8003FF43BAF94EA0C0F0AD150EA01347FF43D
:1049080034AF95EA0C0F7FF425AF104619462CE713
:1049180095EA0C0F06D152EA03353FF4FDAE104676
:10492800194622E750EA410618BF52EA43067FF4C7
:10493800C5AE50EA41047FF40DAF52EA43057FF457
:10494800EBAE12E74FF0FF3C06E000BF4FF0010C62
:1049580002E000BF4FF0010C4DF804CD4FEA410CC6
:104968007FEA6C5C4FEA430C18BF7FEA6C5C1BD093
:1049780001B050EA410C0CBF52EA430C91EA030F14
:1049880002BF90EA020F0020704710F1000F91EA71
:10499800030F58BF994208BF90422CBFD8176FEA3F
:1049A800E37040F0010070474FEA410C7FEA6C5C0D
:1049B80002D150EA013C07D14FEA430C7FEA6C5C14
:1049C800D6D152EA033CD3D05DF8040B704700BF40
:1049D8008446104662468C461946634600E000BF8E
:1049E80001B5FFF7B7FF002848BF10F1000F01BD60
:1049F8004DF808EDFFF7F4FF0CBF012000205DF82B
:104A080008FB00BF4DF808EDFFF7EAFF34BF0120AF
:104A180000205DF808FB00BF4DF808EDFFF7E0FF48
:104A280094BF012000205DF808FB00BF4DF808ED99
:104A3800FFF7CEFF94BF012000205DF808FB00BF00
:104A48004DF808EDFFF7C4FF34BF012000205DF8E2
:104A580008FB00BF4FEA4102B2F1E04324BFB3F5BF
:104A6800001CDCF1FE5C0DD901F0004C4FEAC002DD
:104A78004CEA5070B2F1004F40EB830008BF20F0C1
:104A88000100704711F0804F21D113F13872BCBF7B
:104A980001F00040704741F480114FEA5252C2F1D0
:104AA8001802C2F1200C10FA0CF320FA02F018BF19
:104AB80040F001004FEAC1234FEAD32303FA0CFC6C
:104AC80040EA0C0023FA02F34FEA4303CCE77FEAFB
:104AD800625307D150EA01331EBF4FF0FE4040F445
:104AE8004000704701F0004040F0FE4040F40000F4
:104AF800704700BF80F0004002E000BF81F0004135
:104B080042001FBF5FEA410392EA030F7FEA226C6B
:104B18007FEA236C6AD04FEA1262D2EB1363C1BFFB
:104B2800D218414048404140B8BF5B42192B88BF6A
:104B3800704710F0004F40F4000020F07F4018BF8D
:104B4800404211F0004F41F4000121F07F4118BFAD
:104B5800494292EA030F3FD0A2F1010241FA03FC55
:104B680010EB0C00C3F1200301FA03F100F000433D
:104B780002D5494260EB4000B0F5000F13D3B0F105
:104B8800807F06D340084FEA310102F10102FE2A74
:104B980051D2B1F1004F40EBC25008BF20F00100E4
:104BA80040EA03007047490040EB000010F4000F92
:104BB800A2F10102EDD1B0FA80FCACF1080CB2EB25
:104BC8000C0200FA0CF0AABF00EBC2505242184384
:104BD800BCBFD0401843704792F0000F81F4000129
:104BE80006BF80F400000132013BB5E74FEA4103FC
:104BF8007FEA226C18BF7FEA236C21D092EA030F68
:104C080004D092F0000F08BF0846704790EA010FE1
:104C18001CBF0020704712F07F4F04D1400028BF0E
:104C280040F00040704712F100723CBF00F50000F0
:104C3800704700F0004343F0FE4040F40000704726
:104C48007FEA226216BF08467FEA236301464202D2
:104C580006BF5FEA412390EA010F40F480007047E5
:104C68004FF0000304E000BF10F0004348BF40428B
:104C78005FEA000C08BF704743F0964301464FF0C7
:104C880000001CE050EA010208BF70474FF0000323
:104C98000AE000BF50EA010208BF704711F0004364
:104CA80002D5404261EB41015FEA010C02BF844634
:104CB8000146002043F0B64308BFA3F18053A3F593
:104CC8000003BCFA8CF2083AA3EBC25310DB01FADA
:104CD80002FC634400FA02FCC2F12002BCF1004F5E
:104CE80020FA02F243EB020008BF20F001007047EF
:104CF80002F1200201FA02FCC2F1200250EA4C0043
:104D080021FA02F243EB020008BF20EADC70704788
:104D18004BB942B9002908BF002802D04FF0FF3133
:104D2800084600F0AFB882B0EC462DE9005000F01C
:104D380091F8DDF804E002B00CBC704707EE900A69
:104D4800F5EEC07AF1EE10FA01D400F021B808B5FA
:104D580080F0004000F01CF8404261EB410108BDC2
:104D680038B50022002304460D46FFF74BFE28B94C
:104D780020462946BDE8384000F030B8204605F105
:104D8800004100F02BF8404261EB410138BD00BF03
:104D9800D0B5FFF771FB00220E4B06460F46FFF712
:104DA800BFFB00F071F80446FFF744FB00220A4BF2
:104DB800FFF7B6FB02460B4630463946FFF7FCF9CB
:104DC80000F062F82346002242EA00021046194623
:104DD800D0BD00BF0000F03D0000F041D0B500227A
:104DE8000E4B06460F46FFF79BFB00F04DF80446B6
:104DF800FFF720FB00220A4BFFF792FB02460B4607
:104E080030463946FFF7D8F900F03EF8234600222D
:104E180042EA000210461946D0BD00BF0000F03D2E
:104E28000000F0412DE9F041069C154606460F4664
:104E3800984600F049F805FB01F300FB0838A5FB8C
:104E48000023B21A434467EB0303C4E90023BDE817
:104E5800F08100BF2DE9F041069C904606460F46BA
:104E68001D4600F07FF900FB05F5A0FB082308FBB1
:104E78000155B21A2B4467EB0303C4E90023BDE8CC
:104E8800F08100BF704700BF4A0011D212F500122E
:104E980011D20DD56FF47873B3EB62520ED44FEA8A
:104EA800C12343F0004343EA505323FA02F070470A
:104EB8004FF00000704750EA013002D14FF0FF3048
:104EC80070474FF00000704700292DE9F043C0F209
:104ED800A6800026002BC0F29C80884694469E46F9
:104EE800154604460F46002B3DD18A4259D9B2FADD
:104EF80082F33BB1C3F120029F4020FA02F29D40A9
:104F080017439C40290C220CB7FBF1FEA8B201FB09
:104F18001E7742EA074700FB0EF3BB420AD97F1906
:104F28000EF1FF3280F00581BB4240F20281AEF102
:104F3800020E2F44FF1AA4B2B7FBF1F301FB13775B
:104F480044EA074700FB03F0B84208D97F1903F188
:104F5800FF3280F0F080B84240F2ED80023B43EA35
:104F68000E43002203E08B420FD900221346341C63
:104F780018BF012460424FF0000565EB4501584019
:104F8800514000196941BDE8F083B3FA83F2002A61
:104F980040F086808B4202D3844500F2DB800123F7
:104FA800E5E712B90123B3FBF2F5B5FA85F000285D
:104FB8003BD1781B4FEA154E1FFA85FC0122B0FB46
:104FC800FEF8210C0EFB180741EA07470CFB08F313
:104FD800BB4207D97F1908F1FF3102D2BB4200F268
:104FE800BD808846FF1AA4B2B7FBFEF30EFB137709
:104FF80044EA07470CFB03FCBC4507D97F1903F1BA
:10500800FF3102D2BC4500F2A7800B4643EA0843B1
:10501800ADE752426FEA060663EB43035DE74042A1
:1050280061EB41014FF0FF3654E7C0F1200224FA4A
:1050380002F107FA00F385404FEA154ED7401943AD
:10504800B7FBFEF20B0C0EFB12771FFA85FC43EA46
:1050580007430CFB02F79F4204FA00F407D95B19D7
:1050680002F1FF3074D29F4272D9023A2B44DF1BFF
:1050780089B2B7FBFEF80EFB187341EA03430CFB39
:1050880008F79F4208D95B1908F1FF315CD29F42AB
:105098005AD9A8F102082B44D81B48EA02428EE7E5
:1050A800C2F120032CFA03F10EFA02FE20FA03F7EC
:1050B80041EA0E0E08FA02F028FA03F14FEA1E45FB
:1050C8003843B1FBF5F8030C05FB18111FFA8EF7EE
:1050D80043EA014107FB08F38B420CFA02FC09D9A9
:1050E80011EB0E0108F1FF3930D28B422ED9A8F10D
:1050F80002087144C91A80B2B1FBF5F305FB13111C
:1051080040EA014107FB03F78F4208D911EB0E0172
:1051180003F1FF3016D28F4214D9023B714443EA9F
:105128000843C91BA3FB0C89494509D305D00022B4
:105138001DE79646FEE6134611E794404445F6D22D
:10514800013BF4E70346EAE78846A5E7C846D1E706
:1051580002468CE713460AE7023B57E7A8F1020824
:105168002F443FE72DE9F041002B44D18A421546F0
:1051780004464FD9B2FA82F70E464FB1C7F1200361
:10518800B94020FA03F602FA07F50E4300FA07F4CD
:105198004FEA154E230CB6FBFEF0AFB20EFB1061C2
:1051A80043EA014307FB00F1994209D95B1900F171
:1051B800FF3280F0EC80994240F2E98002382B44BB
:1051C8005A1AA4B2B2FBFEF30EFB132244EA0242BF
:1051D80007FB03F7974208D9521903F1FF3180F012
:1051E800D880974240F2D580023B43EA004000262F
:1051F8003146BDE8F0818B4247D8B3FA83F6002EDA
:1052080048D18B4202D3824200F2CD800120314640
:10521800BDE8F08112B90125B5FBF2F5B5FA85F8BC
:10522800B8F1000F77D14A1B4FEA154EAFB20126ED
:10523800B2FBFEF0230C0EFB102143EA014107FBF1
:1052480000F38B4207D9491900F1FF3202D28B4291
:1052580000F2BA801046C91AA4B2B1FBFEF30EFBE5
:10526800131144EA014407FB03F7A74208D964195C
:1052780003F1FF3280F08F80A74240F28C80023B1E
:1052880043EA00403146BDE8F08100263046314609
:10529800BDE8F081C6F1200422FA04F5B3402B439F
:1052A80020FA04FC01FA06F721FA04F54FEA134E36
:1052B8004CEA0707B5FBFEF8390C0EFB18551FFA28
:1052C80083FC41EA05450CFB08F1A94202FA06F203
:1052D80004D9ED1808F1FF3467D3A0466D1ABFB2A0
:1052E800B5FBFEF40EFB145547EA05410CFB04FC24
:1052F8008C4504D9C91804F1FF355CD32C4644EA1F
:105308000844CCEB0101A4FB0223994248D344D0C2
:10531800204600266CE7C8F1200401FA08F305FAD4
:1053280008F520FA04F7E1404FEA154E1F43B1FB98
:10533800FEF63A0C0EFB16111FFA85FC42EA0143F1
:105348000CFB06F29A4200FA08F407D95B1906F139
:10535800FF3137D29A4235D9023E2B449B1ABFB24D
:10536800B3FBFEF00EFB103347EA03430CFB00F1DE
:10537800994207D95B1900F1FF3221D299421FD90E
:1053880002382B445A1A40EA0646674650E7104648
:1053980016E70B4629E7134672E7B0409042B7D2AA
:1053A800601E002624E7304622E7A94295D9A8F1D5
:1053B80002081D4492E78C45A0D9023C19449EE797
:1053C8001046DFE70E46C9E70238294443E700BF25
:1053D80010F8012B11F8013B012A28BF9A42F7D097
:1053E800D01A704700F1080343604FF0FF32C360E2
:1053F80003610023826003607047002303617047E4
:1054080043684B609A688A609A685160996008613D
:1054180003680133036070470A68531C30B501D133
:10542800036907E000F108035C682568954201D824
:105438002346F9E75A684A6091608B6059600861B1
:1054480003680133036030BD426881680369916075
:105458008268416851605A68824204BF82685A6013
:105468000022026118680138186070472DE9F04180
:105478000C68002C45D04B685C684C6001F108074B
:10548800BC4204BF7B684B604B68D3F80CC000F18A
:105498001C0300204C6864684C60BC4204BFCC68A4
:1054A8004C604C68E46843F81C4C04F1340543F83C
:1054B800185C256C43F8145C03F8102CE56A43F873
:1054C8000C5C032A04D1A56A15B1022503F8105C07
:1054D800A56C43F8085C656D43F8045CD4F830E0CB
:1054E8007646CEEB060516F8018BB8F1A50FF8D075
:1054F800AD08644523F8205B00F10100CAD1BDE87E
:10550800F0812046BDE8F081064A13681968064B09
:1055180011B94FF0FF3203E01268D268D2685268BE
:105528001A607047500C0020B00C002010B50446DB
:1055380028B90A480A4940F2665208F019F962691E
:10554800084B9A4207D1A06A074B984203D0B0FA99
:1055580080F0400910BD002010BD00BFB8580208F7
:10556800BE580208680C0020A00B002010B50E4B96
:105578001A6850600D4A12689042044607D20C4AD5
:1055880010681968BDE810400431FFF745BF094AA3
:10559800106819680431FFF73FFF074B1A689442F7
:1055A80038BF1C6010BD00BF600C0020BC0B002081
:1055B800B80C0020500C0020B00C00202DE9F84F4A
:1055C8000A9E0C9C0F4615469A46814628B968489B
:1055D800684940F22D2208F0CBF8052E05D9664817
:1055E800644940F22E2208F0C3F83CB9A80001F043
:1055F800ABFC8346002800F0B68000E0A34660209C
:1056080001F0A2FC044688B1AD002A46C0F830B0CB
:10561800A521584620F047F8236B043D1D4425F08A
:1056280007057B1E04F13302093705E0584601F0EF
:1056380029FD98E0BB4206D013F8011F02F8011FAC
:1056480019780029F6D1052E4FF0000BB04604F169
:10565800040728BF4FF00508384684F83DB0C4F861
:105668002C80C4F84880C4F84CB0FFF7C6FE04F19B
:105678001800FFF7C2FEC8F10603A361C4F858B0CA
:1056880024616462C4F850B0C4F854B084F85CB0C3
:1056980028464946524601F06FFD0B9B206003B136
:1056A8001C6001F08BFD354A354D1368DFF8F89022
:1056B800013313602B683BBB2C601268012A2BD185
:1056C800984609EB080008F11408FFF78BFEB8F1BB
:1056D800780FF6D1DFF8D4A0DFF8D4805046FFF772
:1056E80081FE4046FFF77EFE2648FFF77BFE2648F0
:1056F800FFF778FE2548FFF775FE254BC3F800A095
:10570800244BC3F8008007E0234B1B6823B92B68A0
:10571800DB6AB34298BF2C60204A214913680133E1
:105728001360E26A23640B68012404FA02F003435D
:1057380014200B6000FB02903946FFF761FE01F070
:105748005FFD154B1B685BB12B68DB6AB34207D260
:10575800144B4FF080521A60BFF34F8FBFF36F8F17
:105768002046BDE8F88F4FF0FF30BDE8F88F00BF46
:10577800D7580208BE580208E25802087C0C0020DC
:10578800600C0020A00B00203C0C0020680C0020BE
:10579800500C0020B80C0020580C0020A80C002049
:1057A800B40B002004ED00E0C00B0020800C0020AA
:1057B800940C002038B5044601F000FD0CB9254BC7
:1057C8001C68251D2846FFF73FFE60B9E06A224A9B
:1057D80014234343D35833B9204901230A6883402B
:1057E80022EA03030B60A36A1BB104F11800FFF758
:1057F8002BFE1B482946FFF703FE1A4A136801339C
:105808001360194A13680133136001F0F9FC174B50
:105818001B68EBB10F4B1B689C4211D1144B1B68E2
:105828002BB11448144940F21E3207F0A1FF134B64
:105838004FF080521A60BFF34F8FBFF36F8F38BDA0
:1058480001F0BCFCFFF760FEBDE8384001F0D8BCB1
:1058580038BD00BF600C0020C00B0020B40B002036
:105868003C0C0020B80B0020A80C0020580C00208D
:10587800B40C002045590208BE58020804ED00E0A7
:10588800F8B5044638B91B481B494FF4B262BDE865
:10589800F84007F06DBF194E3368984229D001F0DF
:1058A8008DFC2046FFF742FE012805461DD1271D25
:1058B8003846FFF7C9FD1249E26A0B6895401D4357
:1058C800104B0D60142000FB02303946FFF798FD9D
:1058D8003368E26ADB6A9A4207D30B4B4FF0805277
:1058E8001A60BFF34F8FBFF36F8FBDE8F84001F028
:1058F80087BCF8BD88590208BE580208600C002011
:10590800B40B0020C00B002004ED00E01FB50024FC
:10591800194B01930094029403941848184996224D
:105928002346FFF74BFE01281AD101F035F901286B
:1059380016D14FF05F0383F31188BFF36F8FBFF366
:105948004F8F104B4FF0FF321A600F4B18600F4B00
:105958001C6010F049FE04B0BDE8104001F0BCBC6A
:1059680040B90B480B4940F2516204B0BDE8104001
:1059780007F0FEBE04B010BDAC0C00200D5D0008A1
:1059880096590208B00C0020580C0020BC0B0020CF
:105998009B590208BE580208024A13680133136073
:1059A800704700BFB40C0020014B1868704700BF57
:1059B800BC0B00202DE9F047394B3A4A19681160B1
:1059C800394A1268002A3AD11A6801321A601F68E7
:1059D800A7B9364C23681B682BB13548354940F2C6
:1059E800AA7207F0C5FE344B2268196821601A6054
:1059F800324A136801331360FFF786FD304EDFF833
:105A0800D0803368DFF8CC909F424FF000040BD36E
:105A1800264B1A681268002A37D01B68DB68DD68D5
:105A28006B689F4211D23360D9F80030DA6A1423C8
:105A3800534358F80330022B28BF012428E0214A99
:105A4800136801331360002422E005F1040A50466C
:105A5800FFF7FAFCAB6A1BB105F11800FFF7F4FC7D
:105A68001948E96A026801238B4013430360142034
:105A780000FB01805146FFF7C3FCD9F80030EA6A01
:105A8800DB6A9A4228BF0124C2E74FF0FF33CAE716
:105A98000E4B1B68002B18BF01242046BDE8F08779
:105AA800BC0B0020080000E0B40C0020500C0020C3
:105AB800BF590208BE580208B80C0020BC0C0020D0
:105AC800B00C0020640C0020B40B0020540C002003
:105AD800C00B0020600C002070B52E4C23682BB939
:105AE8002D482E4940F28E6207F042FE01F066FB17
:105AF8002368013B236023680BB1002445E0284B51
:105B08001B68002BF9D0274B1A680AB3DB68DC68DE
:105B1800261D04F11800FFF797FC3046FFF794FCA8
:105B28002149E26A0B68012505FA02F003430B607C
:105B38001E4B142000FB02303146FFF761FC1C4B62
:105B4800E26A1B68DB6A9A4224BF1A4B1D60DAE7D7
:105B5800194C2368ABB9174B1C68012CCDD1174BD6
:105B68004FF080521A60BFF34F8FBFF36F8F0CE076
:105B7800FFF720FF10B10F4B01221A602368013B89
:105B880023602368002BF3D1E5E701F039FB2046B9
:105B980070BD00BFB40C0020EA590208BE580208C4
:105BA8007C0C0020A00B0020B40B0020C00B0020B0
:105BB800600C0020540C0020640C002004ED00E070
:105BC80038B50C46054628B92548264940F23F32E3
:105BD80007F0CEFD2CB9244822494FF4507207F043
:105BE800C7FD224B1B682BB121481E4940F24132A8
:105BF80007F0BEFDFFF7D0FE1E4B2A681B689342D4
:105C0800144402D2944207D201E0944206D39C4243
:105C180094BF0023012302E0002300E001232C604D
:105C28008BB1154D28680430FFF70EFC40B92B687E
:105C38001249D86A0A680123834022EA03030B60E9
:105C48002046FFF793FCFFF747FF38B90C4B4FF09E
:105C580080521A60BFF34F8FBFF36F8F38BD00BFFC
:105C6800FF590208BE580208125A0208B40C002054
:105C780045590208BC0B0020600C0020B40B002022
:105C880004ED00E038B5044640B9174B4FF0805298
:105C98001A60BFF34F8FBFF36F8F38BD134B1B686C
:105CA8002BB11348134940F2A33207F061FDFFF707
:105CB80073FE114D114B1B68286804301C44FFF714
:105CC800C3FB40B92B680E49D86A0A680123834090
:105CD80022EA03030B602046FFF748FCFFF7FCFEAF
:105CE8000028D2D038BD00BF04ED00E0B40C00207D
:105CF80045590208BE580208600C0020BC0B002061
:105D0800B40B002008B5124C2368F3B1114DFFF70E
:105D180043FE2E68FFF7E0FE002EF4D001F04EFAA5
:105D2800EB68DD68281DFFF78FFB0B4A1368013B02
:105D380013602368013B236001F062FA286B01F0CD
:105D4800A1F9284601F09EF9DDE703F015FCDAE732
:105D5800B80B00203C0C00207C0C0020F8B50C4649
:105D680005461746FFF718FE1C4B1B689C4230D3AC
:105D7800002634461A4905EB441031440122FFF746
:105D880075FB143E16F1780F0444F3D1154B05EB5F
:105D9800441019680222FFF769FB134B0444196881
:105DA80005EB44100222FFF761FB044405EB4410A5
:105DB8000E490422FFF75AFB044405EB44100C4932
:105DC8000322FFF753FB044427B110F051FC38605D
:105DD80000E00024FFF780FE2046F8BD7C0C002080
:105DE800240C0020500C0020B80C00203C0C002093
:105DF800680C002038B50D46044608B9044B1C68E9
:105E080001F0DCF92565BDE8384001F0F9B900BFBB
:105E1800600C002070B5204B1A68204B0AB1012293
:105E280037E01A6010F024FC1D4A1E4E14681E4B01
:105E38001060A04288BF3168186081BF4B6D1B1B82
:105E48001B184B65194B1C68B4FA84F4E4B2C4F10E
:105E58001F041423164D6343EB582BB915481649F4
:105E680040F6C80207F084FC142202FB04F3E91888
:105E780008334868406848602B44984204BF436828
:105E88004B6002FB04546368DB68336033685A6B09
:105E98000A4B1A6070BD00BFB40C0020540C0020DF
:105EA8005C0C0020600C0020380C0020B40B002093
:105EB800C00B00202A5A0208BE580208040000E05D
:105EC800F8B50446284D01F079F904B92C68261D67
:105ED8003046FFF7B9FA60B9E06A244A142343430D
:105EE800D35833B9224901230A68834022EA0303BD
:105EF8000B60A36A1BB104F11800FFF7A5FA1D4F48
:105F080031463846FFF77CFA01F07AF92B689C4253
:105F1800194B1B681ED18BB1184B1B682BB1184845
:105F2800184940F22E5207F023FC174B4FF08052CD
:105F38001A60BFF34F8FBFF36F8FF8BD134A3968EC
:105F48001268914202D1084A1360F8BDBDE8F840D2
:105F5800FFF760BF3BB101F031F9FFF7D5FABDE8B3
:105F6800F84001F04DB9F8BD600C0020C00B0020CE
:105F7800B40B0020680C0020580C0020B40C002042
:105F880045590208BE58020804ED00E07C0C0020C8
:105F980070B50D46064628B91448154940F6DA0288
:105FA80007F0E6FB134C216830461831FFF734FA46
:105FB80020680430FFF748FA40B923680E49D86AC8
:105FC8000A680123834022EA03030B606B1C06D195
:105FD80021680A480431BDE87040FFF711BA084B40
:105FE80018682844BDE87040FFF7C0BA715A020823
:105FF800BE580208600C0020B40B0020680C00207A
:10600800BC0B0020F8B50D461646074628B91548BA
:10601800154940F6591207F0ABFB144C2168384675
:106028001831FFF7EDF920680430FFF70DFA40B991
:1060380023680F49D86A0A680123834022EA0303C8
:106048000B60012E06D121680A480431BDE8F840EA
:10605800FFF7D6B9084B18682844BDE8F840FFF7A1
:1060680085BA00BF715A0208BE580208600C0020A9
:10607800B40B0020680C0020BC0B002038B5C368A6
:10608800DC682CB91648174940F6B41207F070FBC3
:1060980004F118052846FFF7D7F9134B1B687BB99D
:1060A800251D2846FFF7D0F91048E16A0268012348
:1060B8008B40134303600E4B142000FB013000E0BB
:1060C8000C482946FFF79CF90B4BE26A1B68DB6A10
:1060D8009A4283BF094B01201860002038BD00BFD9
:1060E800975A0208BE580208B40C0020B40B0020CE
:1060F800C00B0020A00B0020600C0020540C0020D6
:1061080010B5044628B90648064940F6142207F097
:106118002FFB054B1B682360044B1B68636010BD95
:10612800C65A0208BE580208BC0C0020BC0B00204E
:1061380038B50D46044628B91548164940F61E22BA
:1061480007F016FB2DB91448124940F61F2207F034
:106158000FFB01F033F8114B19682B685A1C10D04B
:106168000F4A106822689042626801D091420AD2B0
:10617800881A984207D2521A13442B602046FFF718
:10618800BFFF002400E0012401F03AF8204638BDA2
:10619800C65A0208BE580208D05A0208BC0B002092
:1061A800BC0C0020014B01221A607047540C0020DF
:1061B800054B1B6833B1054B1B68002B0CBF022035
:1061C8000020704701207047580C0020B40C0020B4
:1061D8002DE9F0410446002838D01D4DC36A2A68CD
:1061E800D26A934232D282691A4E002AA1BF2A6823
:1061F800D26AC2F1060282611427426907FB03636F
:106208009A4220D100F104084046FFF71DF9124BCD
:1062180048B9E06A4743F2592AB91968012282400D
:1062280021EA02021A602A68D26AE26201201C6826
:10623800904020431860142000FB02604146BDE8EE
:10624800F041FFF7DDB82B68DB6AC362BDE8F08177
:10625800600C0020C00B0020B40B002070B5044671
:1062680008B9002070BD204B1B68984205D01F4814
:106278001F4940F6A75207F07BFAE36C2BB91D487B
:106288001B4940F6A95207F073FAE36CE16AA26C65
:10629800013B9142E364E4D0002BE2D1251D28465E
:1062A800FFF7D2F81449154A50B9E66A1423734324
:1062B800CB582BB910680123B34020EA03031360BD
:1062C800A36CE362C3F10600A0611068012404FA1C
:1062D80003F630431060142000FB03102946FFF733
:1062E8008FF8204670BD00BF600C0020DE5A0208FF
:1062F800BE580208F45A0208C00B0020B40B002054
:10630800044B1A681AB11968CA6C0132CA64186851
:10631800704700BF600C002038B51546026C044673
:1063280032B9056845BB4068FFF798FF656024E00F
:106338006DB980681FF0ACF9A268236C13446268D9
:10634800A360934218D32368A360284615E0C06869
:106358001FF09EF9236CE26821685B421A448A4266
:10636800E2603EBF62689B18E360022D04D1A36B14
:1063780013B1A36B013BA3630020A36B0133A36399
:1063880038BD10B5026C03466AB1C4681444C460D1
:106398004068844224BF1868D860BDE810400846A9
:1063A800D9681FF075B910BD10B5044600F006FF96
:1063B800A36C002B0CDD636A53B104F12400FFF7D2
:1063C8005DFE08B1FFF7EEFEA36C013BA364EFE7A7
:1063D8004FF0FF33A36400F013FF00F0EFFE636C8F
:1063E800002B0CDD236953B104F11000FFF746FEC2
:1063F80008B1FFF7D7FE636C013B6364EFE74FF02A
:10640800FF336364BDE8104000F0FABE38B50D46AE
:10641800044628B91A481B494FF4847207F0A8F9B2
:1064280000F0CCFE216CE36B2268A2604B43D018CD
:106438005B1A13446060E36000204FF0FF33A063F1
:106448006364A36485B92369B3B104F11000FFF74D
:1064580015FE012810D10C4B4FF080521A60BFF383
:106468004F8FBFF36F8F07E004F11000FEF7BAFFFC
:1064780004F12400FEF7B6FF00F0C2FE012038BD8B
:10648800555B02085D5B020804ED00E0F8B50D46B7
:106498001746064628B91448144940F2431207F033
:1064A80067F91DB105FB06F0013000E028465430BD
:1064B80000F04AFD044670B10DB9206002E000F119
:1064C80054030360E663256420460121FFF79EFF1D
:1064D80084F8507005E00648044940F27F1207F03E
:1064E80047F92046F8BD00BF765B02085D5B0208ED
:1064F8009B5902082DE9FF410F4601921E460446AA
:1065080028B95948594940F2672207F031F91FB9AB
:10651800236C002B40F09080022E03D1E36B012BFB
:1065280040F09180FFF744FE18B9019B002B40F022
:1065380091804FF0000800F041FEA26BE36B9A4295
:1065480001D3022E1FD1E36C494A43F480731360D0
:10655800204639463246FFF7DFFE636A33B104F15D
:106568002400FFF78BFD012809D100E038B1414B29
:106578004FF080521A60BFF34F8FBFF36F8F00F058
:106588003FFE01206DE0019D15B900F039FE4CE099
:10659800B8F1000F02D102A8FFF7B2FD00F030FEFB
:1065A800FFF7FAF900F00AFE636C013304BF002319
:1065B8006364A36C013304BF0023A36400F020FECE
:1065C80002A801A9FFF7B4FD50BB00F0F7FDD4F80D
:1065D8003880E56B00F014FEA8451BD1E36C244A13
:1065E80043F48063136004F110000199FFF7D0FCB5
:1065F8002046FFF7D9FEFFF76FFA10B14FF00108F8
:1066080099E71C4B4FF080521A60BFF34F8FBFF3CE
:106618006F8FF3E72046FFF7C7FEFFF75DFAEDE758
:106628002046FFF7C1FEFFF757FAE36C104A43F420
:1066380000731360002014E00F480C494FF41A72DD
:1066480007F096F868E70D48084940F2692207F014
:106658008FF867E70A4805494FF41B7207F088F876
:1066680067E704B0BDE8F081555B02085D5B02088E
:106678000C0000E004ED00E0985B0208E85B02080B
:106688002F5C020870B50646542000F05DFC0446F5
:10669800D8B101230025C3634FF0FF3385634560FC
:1066A8004364056083648560C560056480F8506054
:1066B8001030FEF797FE04F12400FEF793FE204603
:1066C80029462A462B46FFF715FF204670BD0000D5
:1066D8002DE9F0410E4690461D46044628B9274844
:1066E800274940F2244207F043F80EB9236C9BBBBC
:1066F800022D02D1E36B012B35D100F05FFEEFF3E1
:1067080011874FF05F0383F31188BFF36F8FBFF3D7
:106718004F8FA26BE36B9A4201D3022D1AD1204608
:1067280031462A46FFF7F8FDA36C01330DD1636AA1
:1067380073B104F12400FFF7A1FC48B1B8F1000FD0
:1067480006D00120C8F8000014E0A36C0133A3644C
:1067580001200FE000200DE00A48094940F22542D7
:1067680007F006F8C4E70848054940F2264206F053
:10677800FFFFC2E787F31188BDE8F081555B020887
:106788005D5B0208985B0208E85B020870B50D467D
:10679800044628B92148224940F2BF4206F0E8FFE2
:1067A800236C2BB11F481E4940F2C34206F0E0FF9C
:1067B80023680BB963683BBB00F000FEEFF311865A
:1067C8004FF05F0383F31188BFF36F8FBFF34F8FD1
:1067D800A26BE36B9A4215D2A36B0133A363A36C3C
:1067E80001330AD1636A5BB104F12400FFF746FC68
:1067F80030B12DB1012028600DE0A36C0133A364F2
:10680800012008E0002006E0074805494FF4996296
:1068180006F0AEFFD0E786F3118870BD555B02081D
:106828005D5B0208855C02089E5C02082DE9FF4159
:106838000E4601929846044628B95648564940F2F1
:106848005B5206F095FF1EB9236C002B40F0908038
:10685800FFF7AEFC18B9019B002B40F09080002791
:1068680000F0ACFCA36B63B320463146E568FFF744
:1068780088FDB8F1000F10D1A36B013BA363236817
:1068880013B9FFF73DFD60602369B3B104F110004F
:10689800FFF7F4FB012810D107E0636AE56063B1F4
:1068A80004F12400FFF7EAFB38B13C4B4FF080526B
:1068B8001A60BFF34F8FBFF36F8F00F0A1FC012068
:1068C80064E0019D15B900F09BFC4FE017B902A8E0
:1068D800FFF716FC00F094FCFFF75EF800F06EFC82
:1068E800636C013304BF00236364A36C013304BFEA
:1068F8000023A36400F084FC02A801A9FFF718FC98
:1069080078BB00F05BFCA56B00F07AFC1DBBE36C68
:10691800234A43F440731360236833B900F04EFCF4
:106928006068FFF755FC00F06BFC04F12400019946
:10693800FFF72EFB2046FFF737FDFFF7CDF808B12C
:1069480001278DE7154B4FF080521A60BFF34F8F28
:10695800BFF36F8FF4E72046FFF726FDFFF7BCF87B
:10696800EEE72046FFF720FDFFF7B6F800200DE020
:106978000C48094940F25C5206F0FAFE68E70A48FA
:10698800054940F25F5206F0F3FE68E704B0BDE83F
:10699800F08100BF555B02085D5B020804ED00E072
:1069A8000C0000E0F95C02082F5C0208F8B50E46FE
:1069B8001746044628B91D481D4940F2156206F0DD
:1069C800D7FE0EB9236C3BBB00F0F8FCEFF3118542
:1069D8004FF05F0383F31188BFF36F8FBFF34F8FBF
:1069E800A06B00B320463146FFF7CBFCA36B013BFD
:1069F800A363636C01330AD123695BB104F110000E
:106A0800FFF73CFB30B12FB1012038600BE0636C1D
:106A180001336364012006E00648054940F2166226
:106A280006F0A6FED0E785F31188F8BD555B02088D
:106A38005D5B0208F95C020810B5044628B90648EF
:106A480006494FF4D46206F093FE00F0B7FBA46B3E
:106A580000F0D6FB204610BD565B02085D5B0208BD
:106A680010B5044628B90648064940F6070206F05C
:106A78007FFEA06BE36BC31A5842584110BD00BF9C
:106A8800565B02085D5B020830B50023064A52F8DF
:106A9800335002EBC3041DB942F83310606030BDB7
:106AA80001330A2BF2D130BD9019012070B504468C
:106AB8000E46154600F082FB636C013304BF0023C9
:106AC8006364A36C013304BF0023A36400F098FB44
:106AD800A36B2BB904F1240031462A46FFF792FA3A
:106AE8002046BDE87040FFF75FBC0000F8B5134CC6
:106AF80000F064FB2568EDB9114F124E3846FEF7D9
:106B080071FC3046FEF76EFC0F4B1F600F4B1420D4
:106B18000C212A461E60FFF7B9FC206028B90C48F2
:106B28000C4940F21A3206F023FE206810B10A49D7
:106B3800FFF7AAFFBDE8F84000F062BBF00C0020A8
:106B4800C40C0020D80C0020C00C0020F40C00203D
:106B58005D5D0208695D0208835D020810B50446A0
:106B680091424160206105D8D21A83699A420CD2B9
:106B7800074B04E09A4201D2994206D2054B1868A5
:106B8800211DFEF749FC002010BD012010BD00BFEB
:106B9800F40C0020C00C00201FB5FFF7A7FF0E4B18
:106BA8001B683BB90D480E494FF4877206F0E0FDAB
:106BB80000200DE001230093002301930293039327
:106BC800084809494FF49672FEF7F8FC0028E9D006
:106BD80005B05DF804FB00BFF00C00209B590208CB
:106BE800695D0208256D0008885D02082DE9F041FD
:106BF800804617461E460D4689B12C2000F0A4F9A0
:106C0800044698B1FFF772FF069BC4F80080A5619F
:106C1800E76126626362201DFEF7EFFB06E0054888
:106C280005494FF49B7206F0A3FD2C462046BDE8AB
:106C3800F08100BF905D0208695D02082DE9FF41FF
:106C48000D4690461F46064628B91348134940F298
:106C5800411206F08DFD124C2068C8B1052D019532
:106C6800CDF8088003960EDCFFF7A2FA022818BFB9
:106C78000022206808BF0A9A01A90CBF0023134606
:106C8800FFF738FC04E001A93A460023FFF720FD8E
:106C980004B0BDE8F08100BFAC5D0208695D020880
:106CA800F00C0020F7B5194D2B681A683AB3DB6869
:106CB800DC681E68271D3846FEF7C6FB636A204657
:106CC8009847E369012BEED1A3693344B34206D94F
:106CD8006360246128683946FEF79EFBE3E70021DC
:106CE8000091204632460B46FFF7A8FF0028DAD16C
:106CF800074808494FF43F7206F03AFDD3E7064AC1
:106D080011682960136003B0F0BD00BFC00C0020FB
:106D1800B35D0208695D0208F40C00202DE9F04714
:106D280086B0DFF8ACA1DAF800301C68B4FA84F455
:106D380064091CB9DB68D3F8008001E04FF0000853
:106D48005C4DFEF729FEFEF72FFE2B689842814620
:106D58002F4603D2FFF7A6FF012300E00023C5F862
:106D68000090554E002B42D144BBC8452DD8FEF7A4
:106D7800B3FEDAF80030DB68DD68281DFEF764FB37
:106D8800EB69012B16D1A969284641444A46434676
:106D9800FFF7E4FE01280DD100942846214642461B
:106DA8002346FFF74BFF28B94448454940F2931260
:106DB80006F0DEFC6B6A284698471EE0414B1B68CC
:106DC8001C68B4FA84F2520900E022463068C9EB24
:106DD8000801FFF76BFEFEF77FFE70B93A4B4FF0E4
:106DE80080521A60BFF34F8FBFF36F8F05E0FEF735
:106DF80073FE02E0039B002B08DA0022306803A927
:106E08001346FFF713FD0028F4D18AE7059C636950
:106E180013B1201DFEF718FBFEF7C6FD3B6898422C
:106E2800054601D2FFF73EFF039A3D60092AE4D8E0
:106E38000123934013F404782AD113F0C70F05D126
:106E48009B06DAD5204600F01DF9D6E7049BA16918
:106E5800204619442A46FFF781FE0128CDD1636AEE
:106E680020469847E369012BC7D1A269049BCDF856
:106E780000801A44204641464346FFF7DFFE0028BB
:106E8800BBD10E480E494FF4287206F071FCB4E7E6
:106E9800049BA3612BB90D48094940F2B72206F0BB
:106EA80067FCA169204629442A462B46FFF756FE6F
:106EB800A3E700BFEC0C0020F00C0020B35D020833
:106EC800695D0208F40C002004ED00E0BB5D0208D7
:106ED800C00C002010B5044628B9064806494FF4EE
:106EE800537206F045FC00F069F9246A00F088F94D
:106EF800204610BDAC5D0208695D020810B5104B54
:106F08001A68824201D21346FAE759685C1884422B
:106F180001BF4068091818465960416844189442EE
:106F280009D1084C2468A2421FBF526889184160E1
:106F38001A6818BF12680260834218BF186010BD33
:106F4800000D0020FC0C00202DE9F8430446FEF754
:106F580023FD4249424D0B68FBB9424A424E500755
:106F68001FBF0732414B22F007029B1A08BF49F6A0
:106F780040431344083B23F007030020706032604D
:106F8800586018600B60981A1360394B506018608D
:106F9800384B18604FF000432B602B681C424BD1D4
:106FA800002C47D0083462071CBF24F007040834BB
:106FB800002C3FD02F4B1A68944298463CD82A4B55
:106FC8001E687268A24203D30A68964206D133E06B
:106FD8003268002AF8D033461646F2E732681F684E
:106FE8001A6073681B1B102B07F1080711D906EBF1
:106FF800040919F0070F04D01F482049E82206F0B9
:10700800B7FB73681B1BC9F8043048467460FFF768
:1070180075FF17497268D8F8003008689B1A8342D0
:10702800C8F8003038BF0B602B681A430023726021
:10703800336002E0274600E00027FEF74DFD0FB958
:1070480002F016F97B0705D00D480C494FF49472ED
:1070580006F08EFB3846BDE8F88300BFFC0C002024
:1070680048A90020080D0020000D002048A9002094
:107078004CA90020F80C0020E05D0208215E0208FF
:107088004C5E020838B5044688B3194B50F8042CF6
:10709800196811421D4605D1164817494FF49E72CA
:1070A80006F066FB54F8083C2BB11448124940F22C
:1070B8003D1206F05DFB54F8043C2A681A4216D0CB
:1070C80054F8081C99B923EA020344F8043CFEF773
:1070D80063FC0B4A54F8041C1368A4F108000B4421
:1070E8001360FFF70BFFBDE83840FEF7F5BC38BD6D
:1070F80048A90020895E0208215E0208BA5E0208DB
:10710800F80C0020014B1868704700BFF80C0020ED
:1071180006480068006880F3088862B661B6BFF365
:107128004F8FBFF36F8F00DF00BF000008ED00E056
:10713800DFF80C00016841F470010160704700003D
:1071480088ED00E008B5094B1B68013305D00848F5
:10715800084940F2071206F00BFB4FF05F0383F378
:107168001188BFF36F8FBFF34F8FFEE70000002039
:10717800DA5E0208F45E02084FF0807300E90A0044
:10718800054B40F80C3C6FF0020340F8202C40F807
:10719800243C4438704700BF4D710008064B1968FD
:1071A8000868B0E8F04F80F30988BFF36F8F4FF09D
:1071B800000080F311887047600C00204FF05F03D7
:1071C80083F31188BFF36F8FBFF34F8F084A13689B
:1071D8000133012B13600AD1064B1B6813F0FF0F14
:1071E80005D00548054940F29F1206F0C1BA70471C
:1071F8000000002004ED00E03E5F0208F45E020893
:1072080010B5084C23682BB9074808494FF4D372C6
:1072180006F0AEFA2368013B23600BB983F31188AB
:1072280010BD00BF00000020735F0208F45E020872
:10723800EFF30980BFF36F8F144B1A681EF0100F1D
:1072480008BF20ED108A20E9F04F10604DF8043D8A
:107258004FF05F0080F31188BFF34F8FBFF36F8F3C
:10726800FEF7D8FD4FF0000080F3118808BC1968BC
:107278000868B0E8F04F1EF0100F08BFB0EC108A95
:1072880080F30988BFF36F8F704700BF600C002040
:1072980008B5EFF311834FF05F0282F31188BFF353
:1072A8006F8FBFF34F8FFEF785FB18B1034B4FF07D
:1072B80080521A60002383F3118808BD04ED00E0B2
:1072C800034B044A1A60072243F8042C704700BF96
:1072D80014E000E03F90020013B52C4B2C4A1968CB
:1072E80091421C4605D12B482B4940F23D1206F02D
:1072F8003FFA2268294B9A4205D1294826494FF47A
:107308009F7206F035FA274B1A78D2B20192FF2203
:107318001A701B78244ADBB28DF803309DF80330CD
:1073280003F05F031370214A072313609DF80310CD
:10733800090603F1FF3007D59DF803305B00DBB287
:107348008DF803300346F1E71B0203F4E063136092
:10735800019B144ADBB21370154B1A6842F47F0282
:107368001A601A6842F07F421A60FFF7A9FF114BB2
:1073780000221A60FFF7DCFE0F4A136843F040430F
:107388001360FFF7C5FEFFF7DDFE00BF00ED00E06C
:1073980071C20F41855F0208F45E020870C20F4196
:1073A800A85F020800E400E050A9002054A90020CA
:1073B80020ED00E00000002034EF00E008B5EFF316
:1073C80005830F2B0BD90E4A9B5C0E4A12789A4202
:1073D80005D90D480D494FF4387206F0C9F90C4B20
:1073E8000C4A1B68126803F4E063934207D90A4801
:1073F80006494FF43C72BDE8084006F0B9B908BD2B
:10740800F0E300E050A90020CB5F0208F45E020818
:107418000CED00E054A90020F55F020808B54FF410
:107428008070012100F068FC4FF480700021BDE8F5
:10743800084000F061BC0000436823F040720B680C
:1074480022F4807213430A7943EA022343600B69EA
:10745800CA681A438B6810B51A438468084B2340DE
:1074680013434A7943EA42038360C36A23F47002F0
:107478000B7D013BDBB242EA0353C36210BD00BF80
:10748800FDF7FFC000230360037143718360C3608D
:10749800036101230375704710B5074C074B6268F9
:1074A800134090E80600114382681143C2680A43FA
:1074B8001343636010BD00BF00230140E030FCFFB0
:1074C8000023036043608360C3607047836811B121
:1074D80043F0010301E023F00103836070470929A9
:1074E80070B50CD9A1F10A04C66804EB4404072559
:1074F800A54026EA0505A3402B43C36009E00569BA
:1075080001EB41060724B44025EA0404B3402343B1
:107518000361062A0BD8013A446B02EB82021F234F
:10752800934024EA030391401943416370BD0C2A38
:107538000BD8073A046B02EB82021F23934024EA1C
:10754800030391401943016370BD0D3AC46A02EB0D
:1075580082021F23934024EA030391401943C16226
:1075680070BD836843F0804383607047C06C80B20D
:1075780070470368194214BF0120002070470000BB
:10758800044B5A6809B1104301E022EA0000586030
:10759800704700BF002004E0044BDA6809B11043CB
:1075A80001E022EA0000D860704700BF002004E034
:1075B800036823F0010303600023036043608360D2
:1075C800C360036121234361294B984217D0294B9B
:1075D80098421BD0284B984220D0284B984225D05F
:1075E800274B98422AD0274B98422ED0264B9842B8
:1075F80032D0264B984236D0254B984203D13D22B3
:1076080043F8082C7047234B984204D14FF4746216
:1076180043F8202C7047204B984204D14FF4741241
:1076280043F8382C70471D4B984204D14FF07462D0
:1076380043F8502C70471A4B984203D1194A43F823
:10764800642C7047184B984203D1184A43F87C2C95
:107658007047174B984203D1164A43F8942C704749
:10766800154B984203D14FF03D5243F8AC2C70476C
:1076780010600240286002404060024058600240AA
:107688007060024088600240A0600240B86002401A
:10769800106402402864024040640240586402407A
:1076A800706402403D00002088640240400F0020C2
:1076B800A064024000003D20B86402400268134BF9
:1076C80010B51340CC680A6814434A6914438A69A0
:1076D8001443CA6914430A6A14434A6A14438A6AF7
:1076E80014434A6B14438A6B224313430360436970
:1076F8000C6B23F00702CB6A2343134343610B69E6
:1077080043604B6883608B68C36010BD3F801CF08A
:10771800036811B143F0010301E023F001030360A2
:10772800704741607047406880B27047006800F059
:107738000100704710B50A4B0A4A0B4CA04294BF8F
:10774800184610468B004CBF4368036821F0F021AF
:1077580021F08211194214BF0120002010BD00BF82
:1077680000600240006402400F64024010B5084AFD
:10777800084B094CA04294BF1846104611F0005F10
:1077880021F0F02121F0821114BFC160816010BD89
:1077980000640240006002400F6402400B0611D5ED
:1077A80043694AB143F080038029436114D00368D8
:1077B80001F01E0119430EE023F080038029436184
:1077C80004D17047802907D0002AF0D1036801F05E
:1077D8001E0123EA0101016070470000104A114BA5
:1077E80010B5114CA04294BF1C46144621F0F0235A
:1077F80023F0C3122AB1006800F01E0000EAD1226B
:1078080002E0406900F0800289004CBF606820688F
:1078180023F08213184002D0101C18BF012010BD9D
:1078280000640240006002400F64024010B5084A3C
:10783800084B094CA04294BF1846104611F0005F4F
:1078480021F0F02121F0821114BFC160816010BDC8
:1078580000640240006002400F640240837910B562
:107868000468002B31D01E4B196821EA04021A6003
:107878005A68016822EA01025A600279016802F135
:10788800804202F59E321468214311609A680168AB
:1078980022EA01029A60DA68016822EA0102DA60E3
:1078A80042790168102A0BBF9A6802F1804311439C
:1078B80003F59E3303BF9960D96802681A680BBF45
:1078C8000A431143DA60196010BD037903F180435C
:1078D80003F59E331A6822EA04021A6010BD00BF3D
:1078E800003C0140014B5861704700BF003C01401B
:1078F800034B5B69184214BF01200020704700BF8A
:10790800003C0140014B5861704700BF003C0140FA
:10791800F0B5002201230C6893401C409C4229D1F9
:10792800550003230668AB40DB431E4006600E7912
:107938000768AE403E4306600E79013E012E11D81D
:1079480086681E4086604E798768AE403E438660F2
:10795800466826EA040444608C7946689440A4B2D8
:1079680034434460C4682340C360CB79C468AB40E7
:107978002343C3600132102ACCD1F0BD4FF6FF7308
:1079880003600023037143718371C37170470369F6
:10799800194214BF012000207047018370474183BA
:1079A80070470AB1018370474183704710B501F0F1
:1079B8000703C90800EB81009B00046A0F21994066
:1079C80024EA01010162016A9A401143016210BD73
:1079D80008B5134B984207D14FF40010012100F06D
:1079E8007FF94FF4001014E00E4B984207D14FF482
:1079F8008000012100F074F94FF4800009E00A4B7F
:107A080098420BD14FF40000012100F069F94FF4BE
:107A180000000021BDE8084000F062B908BD00BFC1
:107A28000054004000580040005C00407FB5868844
:107A380026F03F060446360468460D46360C00F02C
:107A4800DBF8029A2C48B2FBF0F081B20E43A68014
:107A580023882A4E23F001031B041B0C23802B6868
:107A6800B3420AD85B000131B2FBF3F39BB2032B9C
:107A780089B298BF0423218423E0EE884BF6FF7176
:107A88008E421BBF19214B4303EB4303B2FBF3F3B5
:107A980015BF9BB2B2FBF3F343F480439BB2C3F32D
:107AA8000B020AB943F001034FF4967101FB00F28F
:107AB8004FF47A7192FBF1F2013292B243F400432F
:107AC8002284A38323889BB243F001032380238865
:107AD8006989AA8823F4816323F002031B040A43FB
:107AE8001B0C13439BB223802A89AB8913439BB297
:107AF800238104B070BD00BF40420F00A086010082
:107B080012B141F0010101E001F0FE0189B20182E8
:107B18007047038819B19BB243F4806303E023F4F0
:107B280080631B041B0C0380704701827047008A26
:107B3800C0B27047838819B19BB243F4006303E075
:107B480023F400631B041B0C83807047838819B1DE
:107B58009BB243F4805303E023F480531B041B0CB3
:107B68008380704783889BB20AB1194301E023EAF6
:107B780001018180704782B00023009301930B0FAD
:107B880001900093009B21F07F4113B1019B1433B6
:107B980002E0019B090C18330193019B1B681942F1
:107BA80014BF0120002002B07047C94389B2818206
:107BB80070470000014B1860704700BF003000405C
:107BC800014B5860704700BF00300040014B98607F
:107BD800704700BF00300040024B4AF6AA221A60E4
:107BE800704700BF00300040024B4CF6CC421A6090
:107BF800704700BF0030004010B51D4A936803F07D
:107C08000C03042B03D0082B03D01A4B18E01A4B93
:107C180016E05168536811F4800F03F03F03516870
:107C280014BF154A134AB2FBF3F3114A5268C2F360
:107C38000142C1F3881101324B435200B3FBF2F306
:107C48000B4A036093680D49C3F30313CC5C0368C4
:107C5800E34043609468C4F382240C5D23FA04F47F
:107C680084609268C2F342328A5CD340C36010BD1C
:107C7800003802400024F40000127A0004000020BA
:107C8800044B1A6B09B1104301E022EA00001863A3
:107C9800704700BF00380240044B5A6B09B11043CB
:107CA80001E022EA00005863704700BF0038024034
:107CB800044B1A6C09B1104301E022EA0000186471
:107CC800704700BF00380240044B5A6C09B110439A
:107CD80001E022EA00005864704700BF0038024003
:107CE800044B1A6A09B1104301E022EA0000186245
:107CF800704700BF00380240044B5A6A09B110436C
:107D080001E022EA00005862704700BF00380240D4
:107D18004209012A074B01D11B6803E0022A0CBF64
:107D28001B6F5B6F00F01F0023FA00F000F00100EA
:107D3800704700BF00380240024A536F43F0807317
:107D4800536770470038024008B5254B984207D161
:107D58004FF480500121FFF7CFFF4FF4805039E0F6
:107D6800204B984207D14FF480400121FFF7B8FF1C
:107D78004FF4804009E01C4B98420BD14FF400406F
:107D88000121FFF7ADFF4FF400400021BDE8084096
:107D9800FFF7A6BF154B984207D14FF400500121B9
:107DA800FFF7AAFF4FF4005014E0114B984207D197
:107DB8004FF480100121FFF79FFF4FF4801009E076
:107DC8000C4B98420BD14FF400100121FFF794FFA0
:107DD8004FF400100021BDE80840FFF78DBF08BD33
:107DE8000030014000380040003C004000340140B1
:107DF800005001400054014003884A8810B503F43C
:107E080041540B8813438A881343CA8813430A8949
:107E180013434A8913438A891343CA891343234363
:107E28009BB20380838B23F400631B041B0C8383A6
:107E38000B8A038210BD038819B19BB243F040033B
:107E480003E023F040031B041B0C03807047838866
:107E58009BB20AB1194301E023EA0101818070470E
:107E680030B5048C24F001042404240C0484048B0D
:107E7800058CA4B2ADB224F0F304224325F00A0520
:107E880042EA031345F001059AB2294302830184AB
:107E980030BD30B5048C24F010042404240C048470
:107EA800058B048C25F44075A4B22D052D0D24F006
:107EB800A00444F0100445EA022242EA033344EAEB
:107EC80001119BB28CB20383048430BD1C4A038821
:107ED80090429BB212D002F5806290420ED0B0F16F
:107EE800804F0BD0A2F58032904207D002F5806215
:107EF800904203D002F58062904203D14A8823F071
:107F0800700313430F4A904208D002F580629042F2
:107F18001FBF23F440730A899BB2134303804B6845
:107F2800C3620B880385064B984203D003F5806330
:107F3800984201D18B7A038601238382704700BF60
:107F480000000140001000404FF0FF334360002361
:107F58000380038143808372704701858282704762
:107F6800038819B19BB243F0010303E023F0010336
:107F78001B041B0C03807047038C23F001031B04B4
:107F88001B0C0384038C70B58488028B0E8822F046
:107F980073021204120C23F0020516434B888A89D7
:107FA8002D0413430F4A2D0C2B439042A4B29BB2CD
:107FB80003D002F5806290420ED1CA894D8A23F01F
:107FC800080313438A8823F0040313430A8A24F41A
:107FD800407415432C43A4B2848006838A684263A4
:107FE800038470BD00000140038C23F010031B04C0
:107FF8001B0C0384038C30B58588028B0C8822F413
:10800800E6421204120C42EA042223F0200394B23E
:108018001B048A891B0C43EA02134A8843EA0213A9
:10802800124A9042ADB29BB203D002F580629042F0
:1080380015D123F08003CA899BB243EA02124FF696
:10804800BF7313408A8843EA02130A8A25F44065FD
:1080580045EA82054A8A45EA82059BB2ADB2858027
:1080680004838A688263038430BD00BF0000014036
:10807800038C23F480731B041B0C0384038C30B51E
:108088008488828B0D8822F073021204120C23F468
:10809800007315431B048A891B0C43EA02234A8890
:1080A80043EA0223124A9042A4B29BB203D002F5DB
:1080B8008062904215D123F40063CA899BB243EAD7
:1080C80002224FF6FF3313408A8843EA02230A8AC2
:1080D80024F4405444EA02144A8A44EA02149BB243
:1080E800A4B2848085838A68C263038430BD00BFDC
:1080F80000000140038C23F480531B041B0C0384F1
:10810800038C30B58488828B0D8822F4E6421204F1
:10811800120C23F4005342EA05221B048D891B0C20
:1081280043EA05334D8843EA05330B4DA842A4B210
:1081380092B29BB203D005F58065A84205D10D8A9D
:1081480024F4804444EA8514A4B2848082838A6833
:108158000264038430BD00BF0000014041637047E2
:1081680081637047C163704701647047038B23F0D4
:1081780008031B041B0C194301837047038B23F46A
:1081880000631B041B0C43EA012189B20183704779
:10819800838B23F008031B041B0C1943818370474E
:1081A800838B23F400631B041B0C43EA012189B26F
:1081B8008183704700230122038043808280C3802B
:1081C80003817047406B7047806B7047006C704745
:1081D800038B23F00C031B041B0C0383038B9BB240
:1081E800194301837047038B23F440631B041B0C62
:1081F8000383038B9BB243EA012189B20183704751
:10820800838B23F00C031B041B0C8383838B9BB28F
:10821800194381837047838B23F440631B041B0C31
:108228008383838B9BB243EA012189B281837047A0
:108238002DE9F04188460D88B8F804204988B8F837
:108248000830044645B9FFF70BFE2046B8F806107B
:10825800BDE8F041FFF7BCBF042D08D1FFF719FEB8
:108268002046B8F80610BDE8F041FFF7BCBF082D5E
:10827800058C1DD125F480752D042D0C0584858B66
:10828800068CADB225F0F305B6B245EA0315ADB2DA
:1082980026F420662A4346EA0125ADB245F48075E6
:1082A80082830584B8F80610BDE8F041FFF7A8BF3F
:1082B80025F480552D042D0C0584B0F81CE0068C9F
:1082C8002EF4407726F400553F056D043F0D6D0CE4
:1082D80047EA022745EA013547EA0333ADB245F4D8
:1082E80080559BB283830584B8F80610BDE8F04139
:1082F800FFF791BFB0F8443029B16FEA43436FEA02
:1083080053439BB201E0C3F30E03A0F84430704717
:1083180083899BB20AB1194301E023EA01018181F3
:108328007047038A194214BF012000207047038A4E
:10833800828911EA030092B203D0114214BF0120CE
:1083480000207047C94389B20182704783899BB274
:108358000AB1194301E023EA010181817047000055
:108368007FB5038ACA889BB223F440531343038220
:1083780083890E469BB223F4B053098923F00C027B
:10838800B3880B4371890B439BB213438381838A60
:10839800B2899BB223F44073134383820446684630
:1083A800FFF72AFC1A4B9C4203D003F580639C42DA
:1083B80001D1039D00E0029DA38931681BB2002B07
:1083C8004FF0190202FB05F2B4BF4D008D00B2FB5D
:1083D800F5F5A2896426B5FBF6F00001010912B291
:1083E800002A06FB1153ADBF1A01D90032313232CF
:1083F800B5BFB1FBF6F2B2FBF6F302F0070203F0E9
:108408000F03B4BF1043184380B2208104B070BD7D
:1084180000100140838919B19BB243F4005303E073
:1084280023F400531B041B0C83817047C1F308011C
:10843800818070478088C0F308007047838A9BB2A8
:108448000AB1194301E023EA01018182704710B59E
:10845800C1F34214012301F01F01012C03FA01F3B7
:1084680001D10C3003E0022C0CBF1030143012B1D3
:108478000268134302E0026822EA0303036010BDA6
:10848800C94389B201807047012310B5C1F3421472
:1084980001F01F029C4203FA02F201D1838903E032
:1084A800022C0CBF038A838A9BB21340028892B2C3
:1084B8003BB1090A01238B40134214BF012000205D
:1084C80010BD184610BD000040F0BF60024B40F4DC
:1084D8000030D860704700BF00ED00E0C278037834
:1084E80010B512B3164AD1684278C943C1F30221C4
:1084F800C1F10404E4B2A240D4B20F220A41817847
:108508000A40224303F1604303F561431201D2B2EA
:1085180083F8002303780122590903F01F0302FAA4
:1085280003F3084A42F8213010BD5A09012103F02B
:108538001F03994002F12003024A42F8231010BD9C
:1085480000ED00E000E100E010B501F0030301F0E8
:10855800FC0101F1804101F59C319B008C680F22E0
:108568009A4024EA02028A608A68984002438A6034
:1085780010BD08B509F0F7FA00F0AEFEFDF7C6F930
:1085880009F02CFB0020012109F022FB0120014603
:1085980009F01EFBFEE700002DE9F0411E4E35787C
:1085A800C5BB1E4C01214FF48040FFF775FB012726
:1085B8000623A57020460D252370E7706570FFF728
:1085C8008DFF0723204623706570FFF787FF082378
:1085D800204623706570FFF781FF0923204623702A
:1085E8004FF00A086570FFF779FF0523204663708E
:1085F80084F80080FFF772FF172320462370657008
:10860800FFF76CFF2823204684F801802370FFF7CA
:1086180065FF3770BDE8F0815CA9002058A90020EB
:10862800704708B50120FFF76DF9FFF7F9FF08BD9E
:10863800704708B50220FFF765F9FFF7F9FF08BD95
:10864800704708B50420FFF75DF9FFF7F9FF08BD8B
:10865800704708B50820FFF755F9FFF7F9FF08BD7F
:1086680008B51020FFF74EF90BF078FB08BD7047EE
:10867800704770477047704708B52020FFF738F9F2
:10868800012804D12020FFF73DF9FFF7F0FF402033
:10869800FFF72EF9012804D14020FFF733F9FFF73F
:1086A800E7FF8020FFF724F9012804D18020FFF795
:1086B80029F9FFF7DEFF4FF48070FFF719F9012859
:1086C80005D14FF48070FFF71DF9FFF7D3FF4FF482
:1086D8000070FFF70DF9012805D14FF40070FFF77E
:1086E80011F9FFF7C8FF08BD70477047704770471A
:1086F80008B54FF48060FFF7FBF8012805D14FF467
:108708008060FFF7FFF8FFF7EFFF4FF40060FFF717
:10871800EFF8012805D14FF40060FFF7F3F817F0E0
:1087280095F84FF48050FFF7E3F8012805D14FF48E
:108738008050FFF7E7F8FFF7D8FF4FF40050FFF736
:10874800D7F8012805D14FF40050FFF7DBF80EF0F9
:10875800FBFD4FF48040FFF7CBF8012805D14FF41B
:108768008040FFF7CFF8FFF7C1FF4FF40040FFF755
:10877800BFF8012805D14FF40040FFF7C3F8FFF711
:10878800B6FF08BD4FF44070FFF79EBEFEF780BDF0
:1087980070471EF0040F0CBFEFF30880EFF3098059
:1087A80000F002B8704700002DE9F84FD0F800B08B
:1087B800D0F804A0D0F80890D0F80C800769466972
:1087C8008569C4693449354805F0EAF934493348BC
:1087D8005A4605F0E5F933493048524605F0E0F9C4
:1087E80031492E484A4605F0DBF930492B484246C4
:1087F80005F0D6F92E4929483A4605F0D1F92D4910
:108808002648324605F0CCF92B4924482A4605F07B
:10881800C7F92A492148224605F0C2F9284B2949B7
:108828001A681E4805F0BCF9274B28491A681B48E6
:1088380005F0B6F9264B27491A68184805F0B0F92B
:10884800254B26491A68154805F0AAF9244B2549ED
:108858001A68124805F0A4F90020014600F032F920
:108868000120002100F02EF90220002100F02AF951
:108878000320002100F026F909F0DCF9022001218B
:1088880009F0A6F90420012109F0A2F916488E2161
:1088980004F0A6FFFEE700BF37600208853E010826
:1088A8004D600208566002085F60020868600208AE
:1088B800716002087B600208846002088D6002080B
:1088C80038ED00E09760020828ED00E0A260020899
:1088D8002CED00E0AD60020830ED00E0B860020861
:1088E8003CED00E0C3600208CE600208002008B535
:1088F800014600F0E7F80120002100F0E3F802202B
:10890800002100F0DFF80320002100F0DBF809F077
:1089180091F90220012109F05BF90420012109F0F5
:1089280057F90248A12104F05BFFFEE7CE60020878
:10893800002008B5014600F0C5F80120002100F02C
:10894800C1F80220002100F0BDF80320002100F04A
:10895800B9F809F06FF90220012109F039F904206A
:10896800012109F035F90248B52104F039FFFEE785
:10897800CE600208002008B5014600F0A3F80120E7
:10898800002100F09FF80220002100F09BF803204E
:10899800002100F097F809F04DF90220012109F0B3
:1089A80017F90420012109F013F90248C92104F03C
:1089B80017FFFEE7CE60020870470AF01BB80000F8
:1089C8002DE9F0413D4F3C788AB0002C73D13C4DE5
:1089D80028602B681B5901215868FFF751F92B684B
:1089E8001B590121D869FFF763F96846FEF7C6FFEE
:1089F80002238DF804308DF805302B681A59526916
:108A08008DF806201A59D26800921B596946986851
:108A1800FEF77EFF2B681B599868198A1A7EFEF7A5
:108A2800C5FF2B681A59D26A03921A590026128E6A
:108A3800ADF80820ADF81060ADF80A608DF8126046
:108A48001B5902A9186AFFF741FA6023ADF81430E0
:108A58004FF001082B68ADF8168007961A59928CCA
:108A6800ADF820204FF48072ADF824201B5905A9D9
:108A7800DA6B186A90472B681B5908211A6C186A18
:108A880090472B681B594146986AFEF785FD2B686D
:108A98001B594146186A0434FFF72CFC102C98D156
:108AA8002B689B590121186A0436FFF759FA102ED2
:108AB800F6D101233B700AB0BDE8F08170A900200F
:108AC800E019012070B52DED028B324B1B7882B076
:108AD80005460C46002B58D0032804D92E482F49A8
:108AE800CD2204F045FE2E4B1A6852F82520127844
:108AF8001E466ABB07EE904A9FED2A7A9FED2A0A26
:108B0800FBEEC87A67EE877A9FED287A27EE800A0F
:108B180027EE877AA7EE270AB0EE408A0DF09AF87A
:108B280088EE000A224BF7EE007AB4EE670AF1EEFF
:108B380010FAC8BFB0EE670ADFED1E7A20EE270AEA
:108B4800BCEEC00A8DED010ABDF8044043F825408B
:108B5800336853F825301A78012A01BF45F20821F5
:108B68004C434FF6FF71B4FBF1F104BF01F5A4418A
:108B780008315A6B0BBF186A186A89B2210A02B009
:108B8800BDEC028BBDE87040104702B0BDEC028B13
:108B980070BD00BF70A90020C4610208D761020837
:108BA800E0190120000070425839B43D388D23BACD
:108BB80060A9002000FF7F4703282DE9FF410446F4
:108BC800884617461E4605DD1848194940F207121F
:108BD80004F0CEFD01A8FFF7B7F9164DB8F1000F64
:108BE80008D00423144A92FBF7F292B2ADF804308D
:108BF800029209E02B6853F82420D26A029253F8B3
:108C080024301B8EADF804302B6853F8243001A9AA
:108C1800186AFFF75BF92B6853F8243031465A6B12
:108C2800186A904704B0BDE8F08100BFC46102082B
:108C3800D7610208E01901200059000170B500242D
:108C4800114B1B6853F824301D78BDB90F4B53F8EE
:108C580024600F4B012133F81420304640F275731D
:108C6800FFF7AAFF3220FDF70DF8304629462A46BD
:108C78002B46FFF7A1FF9620FDF704F80134042CDA
:108C8800DED1044B187870BDE01901202C61020870
:108C98005C62020870A900207320704708B5FCF7D1
:108CA80083FE1E4B5A69904236D99A699861821A96
:108CB80007EE902AB8EE676AD3ED007AF8EE676A95
:108CC800DFED177A66EEA76A00F5FA70C6EE866AD7
:108CD8005861BCEEE67A17EE102A93ED017A9A8174
:108CE800F8EE476A66EEA76AC6EE866ABCEEE67AD2
:108CF80017EE102A93ED027ADA81B8EE477A27EE5A
:108D0800277AC7EE067AFCEEE77A17EE902A1A82DF
:108D180000221A605A609A6008BD00BFBCA90020F2
:108D280000007A4430B589B01B4B1C4A1B6893423B
:108D38002DD09B68684698470028F5D19DF80130EA
:108D4800174D184C1B0955F8230078B1FDF774FE30
:108D580010B16368013363609DF801301B096946EF
:108D680055F8230000220223FDF7C4FB9DF80130CB
:108D78000D4A1B0952F8231019B152F823306846DE
:108D88009847236801332360FFF788FFCCE70A2060
:108D9800FCF778FFC8E700BF4C0000203400002033
:108DA80074A90020BCA90020D8A9002010B588B05B
:108DB800114B124A196891421C4619D0104B69464A
:108DC80018684FF0FF320023FDF730FD0128EFD17E
:108DD800236868465B68984718B90A20FCF752FF71
:108DE800F6E7084A936801339360FFF757FFDFE718
:108DF8000A20FCF747FFDBE74C0000203400002086
:108E0800B8A90020BCA900207FB5124D2C78F4B970
:108E1800202122463C20FDF739FB0F4B0F491860F3
:108E280002269622234600960194029403940C4845
:108E3800FCF7C4FB23460096019402940394094866
:108E480009494FF49672FCF7B9FB01232B7004B063
:108E580070BD00BFB4A90020B8A90020746302083F
:108E6800B58D00082D8D00087C630208014B187829
:108E7800704700BFB4A9002038B5094B53F820202B
:108E880005461C4622B1074807496F2204F070FCCA
:108E9800012020210022FDF7F9FA44F8250038BD09
:108EA80074A90020846302089B63020870B50E4B06
:108EB80053F8202006460D461C4622B90B480C499B
:108EC8007F2204F055FC25B90A480949802204F09C
:108ED8004FFC54F8260029464FF0FF320023BDE826
:108EE8007040FDF7A3BC00BF74A90020B26302085C
:108EF8009B630208C46D020808B5034B1868FDF7A8
:108F08009BFDC0F13C0008BDB8A900201028DCBFBB
:108F1800014B43F820107047D8A9002010B504462B
:108F280020B90B480B49DC2204F022FC23781E2BC5
:108F380004D909480749DD2204F01AFC074B00222E
:108F4800186821461346BDE81040FDF7D3BA00BFA4
:108F5800C46D02089B630208C1630208B8A9002017
:108F680008B5064B00211868FDF750FA044B1B683A
:108F78005B6903B19847002008BD00BFB8A900206D
:108F88004C000020034B1B681B6903B118470120E4
:108F9800704700BF4C00002070B5094C2368054697
:108FA80013B11B68002098470DB1256001E0054BFF
:108FB8002360236801201B68BDE87040184700BF84
:108FC8004C0000203400002038B50C4C4FF0FF3323
:108FD8000021054644F8203008F0FAFD084A282305
:108FE80003FB0522002352F82310013102D044F874
:108FF800253038BD01330A2BF5D138BDE4AA00204D
:1090080018AA00202DE9F74F8046FDF763FF2C4B87
:109018001B78002B50D0C5B22A4B53F82530581C6A
:109028004AD00A2606FB0536DFF8A490264A59F8E6
:10903800264052F823B0254F0021631C0BEBC40ACD
:1090480049F8263038680B464FF0FF32FDF7EEFB43
:10905800DAF80430991C08D05A1C0AD1284649F875
:1090680026300024FFF7B0FF1EE0002449F8264010
:109078001AE01BF83410284608F0AAFDDAF8042094
:10908800002482B12346042100944046FDF7D6FD12
:10909800FCF78AFC00940246234640460121FDF76E
:1090A800CDFD012400E01446002138680A460B462D
:1090B800FDF720FA002CAFD003B0BDE8F08F00BF59
:1090C800E0AA0020E4AA0020086402080CAB0020F3
:1090D80018AA002037B51E4B1C781D46ACBB08F0FB
:1090E8007DFD23461B4A4FF0FF3142F823101A49F1
:1090F800282202FB031100224FF0FF3041F8220022
:1091080001320A2AF8D10133052BEBD10024134B85
:109118000093134823464FF47A710022FDF766FD49
:10912800104B43F824000134052CF0D10322012010
:109138000021FDF7ABF90C4A106020B100210A4666
:109148000B46FDF7D7F901232B7003B030BD00BFE4
:10915800E1AA0020E4AA002018AA00200D90000827
:1091680000650208F8AA00200CAB002010B5044BDB
:109178001C7808F069FD034B01221A70204010BDCD
:10918800E1AA0020E0AA0020F8B505460024174B04
:1091980053F824308B4223D1154F00210B464FF052
:1091A800FF323868FDF742FB0A2303FB0543114AE7
:1091B8000026284642F82360FFF706FF3346386842
:1091C80031463246FDF796F90B4B53F82530A3424A
:1091D8000AD10A4B53F82500BDE8F840FFF712BF43
:1091E80001340A2CD3D1F8BDF8BD00BF08640208C9
:1091F8000CAB002018AA0020E4AA0020F8AA00203E
:109208004160C2607047000070B505460024144BE9
:1092180053F824308B421FD1124E00210B46306880
:109228004FF0FF32FDF702FB0A2303FB05440E4B08
:109238004FF0FF32284643F82420FFF7C5FE0021EF
:1092480030680B460A46FDF755F9084B53F82500D8
:10925800BDE87040FFF7D6BE01340A2CD7D170BDE7
:10926800086402080CAB002018AA0020F8AA002005
:1092780008B54FF05F0383F31188BFF36F8FBFF317
:109288004F8F0649064804F08BFC0220012108F0A4
:109298009FFC0420012108F09BFCFEE74C650208B6
:1092A800C19600087047012070470000024B1B68F8
:1092B8000BB11B681847704710AB0020024B1B68A6
:1092C8000BB15B681847704710AB0020014B186062
:1092D800704700BF10AB00201FB502230093002386
:1092E800019302930393044904484FF49672FCF7E0
:1092F80065F905B05DF804FB5D650208399400085E
:1093080073B52A4C2578002D4ED10120FDF7BAF906
:10931800274B284E18604FF0FF322B462946FDF7A1
:1093280085FA0CF0A3FA11F01DFEFFF76DFD00F0B1
:1093380081F900F0E9FB2049204804F031FC20497C
:109348001E4804F02DFC1F491F4B0D681F48367836
:109358001F491A681F4B002E18BF01461B68174883
:10936800019100951C4904F01BFC1C4B1C491B680F
:1093780000931C4B1148B3F9003001931A4B1A683B
:10938800043B1B6804F00CFC17F078FE01F09AFD12
:1093980013F04EFFFFF79EFE0CF030FCFFF782FF44
:1093A80000F00CFD0123237002B070BD1CAB00203F
:1093B800E41901207870020873650208C196000854
:1093C8009665020804040020080400206465020869
:1093D8006D65020800040020BD650208107AFF1FB1
:1093E800D7650208227AFF1F187AFF1F38B5084B85
:1093F8001C78FFF7BBFE05460CF026FC284004400D
:1094080001F06CFD0440FFF74EFF204038BD00BF5F
:109418001CAB002008B5054B002118680A460B460E
:10942800FDF768F8BDE808400AF070BDE4190120AE
:1094380038B508F0D3FB0121002008F0C9FBFFF77D
:109448005FFF00F0A9F801F005FE13F06DFB13F0C3
:1094580065FD02F0BBFF13F067FD08B108F08AFB59
:1094680011F032FC11F0C6FEFFF7C0FF044617F0FA
:10947800B3FE2040C4B200F0B5F8044001F096FEF7
:10948800044002F0D9FF044013F06CFB044011F0D3
:1094980045FC044011F0D0FE0440204D0AF020FDA8
:1094A80084B178B101242C70FFF7B4FF062011F0C5
:1094B8003BFC04201A49FFF767FE20461949FFF7CD
:1094C80063FE1CE000232B70FFF790FF88B1042097
:1094D8001449FFF759FE4FF4FA60FCF7D3FB2B78D9
:1094E800002BF4D01049114804F05AFBFFF792FF03
:1094F80005E008F073FB0420012108F069FBFDF783
:1095080001FE0B490246094804F04AFB01F0EEFC53
:109518004FF0FF30FCF7B6FBFAE700BF14AB0020B2
:1095280034650208886402080B660208C1960008C0
:109538001F66020810B50B4B1B781BB90220FCF7FD
:10954800A1FBF8E7084C00210B4620684FF0FF32DA
:10955800FDF76CF9002120680A460B46BDE810406B
:10956800FCF7C8BF1CAB0020E4190120014B1870A0
:10957800704700BF1DAB002008B5FCF715FA054A77
:109588001368C31A502B02D91060FEF725FB30BFB1
:1095980008BD00BF18AB002010B5104C2378DBB90C
:1095A8000AF088F90CF0C0FDFFF72EFC00F042F835
:1095B80006210B4800F0DCF80CF074FEFFF7ECFC19
:1095C80000F07EFD11F0A0FA01F00CFB00F0AAFDFE
:1095D80002F014FA0123237010BD00BF1EAB002057
:1095E8006058020838B50B4B1C780CF05DFD054639
:1095F800FFF73CFC2840044000F072FD044011F0E5
:1096080093FA044000F034F8044000F01FFE2040B4
:1096180038BD00BF1EAB002010B5054C2046FFF733
:109628007DFC01284FF000030CBF2370184610BDC5
:10963800E819012038B50B4B1C781D468CB90A4B2C
:109648000322012021461C705C70FCF71FFF074AAB
:10965800106020B1214622462346FCF74BFF012328
:109668002B7038BD24AB0020E819012020AB002066
:10967800014B1878704700BF24AB002037B50C4C5D
:1096880005460021206801AAFDF790F901280CD1B0
:10969800084A206813781D2B9EBFD11801338D709E
:1096A80001A998BF1370FDF771F8284603B030BDC3
:1096B80020AB0020E819012070B5214B5968214BD7
:1096C8001B780646002B39D0C1F3080119B1BDE853
:1096D8007040FFF7D3BF1C4D4FF0FF3228680B4690
:1096E800FDF7A4F8012827D1184C23781D2B04D99D
:1096F800FFF702FC012817D109E0E2180133DBB2B9
:109708000A2E96702370F3D01E2BF1D00EE020782D
:1097180000231A18002A07DD0D4919442244097943
:109728009170013B5A1DF4D1FFF776FF002128689C
:109738000A460B46FCF7DEFEF0B270BD184670BD57
:1097480000ED00E024AB002020AB0020E819012048
:109758007E66020810B5054C2046FFF7DFFB01289E
:109768004FF000030CBF2370184610BDE819012004
:10977800F8B50B4D0B4E2B680B44B3F5806FC4BF87
:1097880000232B602F6802460C46F019114622462A
:109798003C441BF07DFF002333552C60F8BD00BF0F
:1097A80090AB0020BCAC002037B50C4C054600211E
:1097B800206801AAFDF7FAF801280CD1084A2068A8
:1097C80013781D2B9EBFD11801338D7001A998BF46
:1097D8001370FCF7DBFF284603B030BD64AB0020F4
:1097E800E819012070B5214B5968214B1B780646B2
:1097F800002B39D0C1F3080119B1BDE87040FFF75B
:10980800D3BF1C4D4FF0FF3228680B46FDF70EF80A
:10981800012827D1184C23781D2B04D9FFF76CFB9E
:10982800012817D109E0E2180133DBB20A2E96703D
:109838002370F3D01E2BF1D00EE0207800231A18E5
:10984800002A07DD0D491944224409799170013B2A
:109858005A1DF4D1FFF77EFF002128680A460B46FF
:10986800FCF748FEF0B270BD184670BD00ED00E090
:109878008CAB002064AB0020E8190120A86702081F
:1098880038B5451E002415F8010F18B1FFF7AAFFD7
:109898000443F8E7204638BD10B50A4C002120687B
:1098A8004FF0FF320B46FCF7C1FF012809D1FFF743
:1098B80051FF002120680A460B46BDE81040FCF71E
:1098C80019BE10BD64AB002008B5FFF7D9FFBDE88D
:1098D8000840FFF7E1BF00002DE9F04F7D4C8A46B4
:1098E80000218BB083464FF0FF3220680B46FCF70F
:1098F8009DFF0128019440F0EA80774D2B7823B131
:109908002846FFF70BFB00232B70744B744C012285
:109918001A700221002222606970904600260027F2
:109928009946D04554D2C8EB0A060F2E6D4B10DC71
:10993800F6B218460BEB080132462E701BF0A8FE53
:1099480069493044C6F110021BF0A2FE10232B70A7
:109958000BE010222A700BEB080202F1100152F8FA
:10996800040B43F8040B8A42F9D108F1100C5FFA92
:109978008CF8FCF719F8FAF75DFD00225B4BFAF753
:10998800F9FE584A102306460F465948594904F02B
:1099980085FDFCF709F8574B574A03F1100153F8B6
:1099A800040B42F8040B8B42F9D1544B544A03F18F
:1099B8000C0153F8040B42F8040B8B42F9D11B88B5
:1099C80013804548FFF7AAFA236801332360A8E704
:1099D800002489F800406C70FBF7E6FFFAF72AFDCF
:1099E8000022424BFAF7C6FE32463B46FAF7E4FB42
:1099F80006460F46FBF7F2F950EA010305D00A22A2
:109A080000230134FBF784F9F6E70AAB23442E223E
:109A180003F8202C3046394600223A4BFAF780FDED
:109A28000022384BFAF77CFD0022364BFAF778FD16
:109A38000022344BFAF774FD0022324BFAF770FD1E
:109A48000022304BFAF76CFD063406460F46002517
:109A580030463946FBF7C2F9013C4FF00009A145F1
:109A68004FF00A024FF0000304DAFBF751F909F14D
:109A78000109F4E7FBF74CF90AAB2B44303213F831
:109A8800203C2E2B08BF01350AAB2B44013503F8C7
:109A9800202C002CDCD10AAB6E1C1D4402A905F851
:109AA800204C154D324628461BF0F2FD284600F89A
:109AB800026DFFF733FA019B05F8024C186821463E
:109AC800224623460BB0BDE8F04FFCF713BD0BB0A0
